{
  "_format": "hh-sol-artifact-1",
  "contractName": "AminoChainMarketplace",
  "sourceName": "contracts/AminoChainMarketplace.sol",
  "abi": [
    {
      "inputs": [
        {
          "internalType": "uint256",
          "name": "_donorIncentiveRate",
          "type": "uint256"
        },
        {
          "internalType": "address",
          "name": "_usdc",
          "type": "address"
        },
        {
          "internalType": "address",
          "name": "_tokenizedStemCells",
          "type": "address"
        },
        {
          "internalType": "address",
          "name": "_chainlinkToken",
          "type": "address"
        },
        {
          "internalType": "address",
          "name": "_chainlinkOracle",
          "type": "address"
        }
      ],
      "stateMutability": "nonpayable",
      "type": "constructor"
    },
    {
      "anonymous": false,
      "inputs": [
        {
          "indexed": true,
          "internalType": "bytes32",
          "name": "id",
          "type": "bytes32"
        }
      ],
      "name": "ChainlinkCancelled",
      "type": "event"
    },
    {
      "anonymous": false,
      "inputs": [
        {
          "indexed": true,
          "internalType": "bytes32",
          "name": "id",
          "type": "bytes32"
        }
      ],
      "name": "ChainlinkFulfilled",
      "type": "event"
    },
    {
      "anonymous": false,
      "inputs": [
        {
          "indexed": true,
          "internalType": "bytes32",
          "name": "id",
          "type": "bytes32"
        }
      ],
      "name": "ChainlinkRequested",
      "type": "event"
    },
    {
      "anonymous": false,
      "inputs": [
        {
          "indexed": false,
          "internalType": "address",
          "name": "authenticator",
          "type": "address"
        }
      ],
      "name": "authenticatorAddressSet",
      "type": "event"
    },
    {
      "anonymous": false,
      "inputs": [
        {
          "indexed": false,
          "internalType": "uint256",
          "name": "tokenId",
          "type": "uint256"
        }
      ],
      "name": "listingCanceled",
      "type": "event"
    },
    {
      "anonymous": false,
      "inputs": [
        {
          "indexed": false,
          "internalType": "uint256",
          "name": "newIncentiveRate",
          "type": "uint256"
        }
      ],
      "name": "newDonorIncentiveRate",
      "type": "event"
    },
    {
      "anonymous": false,
      "inputs": [
        {
          "indexed": false,
          "internalType": "address",
          "name": "seller",
          "type": "address"
        },
        {
          "indexed": false,
          "internalType": "uint256",
          "name": "tokenId",
          "type": "uint256"
        },
        {
          "indexed": false,
          "internalType": "uint256",
          "name": "sizeInCC",
          "type": "uint256"
        },
        {
          "indexed": false,
          "internalType": "uint256",
          "name": "price",
          "type": "uint256"
        },
        {
          "indexed": false,
          "internalType": "address",
          "name": "donor",
          "type": "address"
        },
        {
          "indexed": false,
          "internalType": "address",
          "name": "bioBank",
          "type": "address"
        }
      ],
      "name": "newListing",
      "type": "event"
    },
    {
      "anonymous": false,
      "inputs": [
        {
          "indexed": false,
          "internalType": "address",
          "name": "oldOwner",
          "type": "address"
        },
        {
          "indexed": false,
          "internalType": "address",
          "name": "newOwner",
          "type": "address"
        }
      ],
      "name": "ownershipTransferred",
      "type": "event"
    },
    {
      "anonymous": false,
      "inputs": [
        {
          "indexed": false,
          "internalType": "address",
          "name": "bioBank",
          "type": "address"
        },
        {
          "indexed": false,
          "internalType": "address",
          "name": "buyer",
          "type": "address"
        },
        {
          "indexed": false,
          "internalType": "uint256",
          "name": "tokenId",
          "type": "uint256"
        },
        {
          "indexed": false,
          "internalType": "address",
          "name": "donor",
          "type": "address"
        },
        {
          "indexed": false,
          "internalType": "uint256",
          "name": "salePrice",
          "type": "uint256"
        },
        {
          "indexed": false,
          "internalType": "uint256",
          "name": "donorIncentive",
          "type": "uint256"
        },
        {
          "indexed": false,
          "internalType": "uint256",
          "name": "protocolFee",
          "type": "uint256"
        }
      ],
      "name": "saleCompleted",
      "type": "event"
    },
    {
      "anonymous": false,
      "inputs": [
        {
          "indexed": false,
          "internalType": "address",
          "name": "bioBank",
          "type": "address"
        },
        {
          "indexed": false,
          "internalType": "address",
          "name": "buyer",
          "type": "address"
        },
        {
          "indexed": false,
          "internalType": "uint256",
          "name": "tokenId",
          "type": "uint256"
        },
        {
          "indexed": false,
          "internalType": "uint256",
          "name": "sizeInCC",
          "type": "uint256"
        },
        {
          "indexed": false,
          "internalType": "address",
          "name": "donor",
          "type": "address"
        },
        {
          "indexed": false,
          "internalType": "uint256",
          "name": "escrowedPrice",
          "type": "uint256"
        }
      ],
      "name": "saleInitiated",
      "type": "event"
    },
    {
      "anonymous": false,
      "inputs": [
        {
          "indexed": false,
          "internalType": "uint256",
          "name": "tokenId",
          "type": "uint256"
        },
        {
          "indexed": false,
          "internalType": "address",
          "name": "buyer",
          "type": "address"
        },
        {
          "indexed": false,
          "internalType": "address",
          "name": "bioBank",
          "type": "address"
        },
        {
          "indexed": false,
          "internalType": "uint256",
          "name": "refundTotal",
          "type": "uint256"
        }
      ],
      "name": "saleRefunded",
      "type": "event"
    },
    {
      "anonymous": false,
      "inputs": [
        {
          "indexed": false,
          "internalType": "address",
          "name": "stemCells",
          "type": "address"
        }
      ],
      "name": "stemCellsAddressSet",
      "type": "event"
    },
    {
      "inputs": [],
      "name": "authenticator",
      "outputs": [
        {
          "internalType": "address",
          "name": "",
          "type": "address"
        }
      ],
      "stateMutability": "view",
      "type": "function"
    },
    {
      "inputs": [
        {
          "internalType": "uint256",
          "name": "tokenId",
          "type": "uint256"
        }
      ],
      "name": "buyItem",
      "outputs": [],
      "stateMutability": "nonpayable",
      "type": "function"
    },
    {
      "inputs": [
        {
          "internalType": "uint256",
          "name": "tokenId",
          "type": "uint256"
        }
      ],
      "name": "cancelListing",
      "outputs": [],
      "stateMutability": "nonpayable",
      "type": "function"
    },
    {
      "inputs": [
        {
          "internalType": "bytes",
          "name": "",
          "type": "bytes"
        }
      ],
      "name": "checkUpkeep",
      "outputs": [
        {
          "internalType": "bool",
          "name": "upkeepNeeded",
          "type": "bool"
        },
        {
          "internalType": "bytes",
          "name": "performData",
          "type": "bytes"
        }
      ],
      "stateMutability": "view",
      "type": "function"
    },
    {
      "inputs": [],
      "name": "donorIncentiveRate",
      "outputs": [
        {
          "internalType": "uint256",
          "name": "",
          "type": "uint256"
        }
      ],
      "stateMutability": "view",
      "type": "function"
    },
    {
      "inputs": [
        {
          "internalType": "bytes32",
          "name": "_requestId",
          "type": "bytes32"
        },
        {
          "internalType": "bool",
          "name": "isDoctorOrResearcher",
          "type": "bool"
        }
      ],
      "name": "fulfill",
      "outputs": [],
      "stateMutability": "nonpayable",
      "type": "function"
    },
    {
      "inputs": [
        {
          "internalType": "uint256",
          "name": "tokenId",
          "type": "uint256"
        }
      ],
      "name": "getListingData",
      "outputs": [
        {
          "components": [
            {
              "internalType": "address",
              "name": "seller",
              "type": "address"
            },
            {
              "internalType": "uint256",
              "name": "sizeInCC",
              "type": "uint256"
            },
            {
              "internalType": "uint256",
              "name": "price",
              "type": "uint256"
            },
            {
              "internalType": "address",
              "name": "donor",
              "type": "address"
            },
            {
              "internalType": "address",
              "name": "bioBank",
              "type": "address"
            }
          ],
          "internalType": "struct AminoChainMarketplace.Listing",
          "name": "",
          "type": "tuple"
        }
      ],
      "stateMutability": "view",
      "type": "function"
    },
    {
      "inputs": [],
      "name": "i_usdc",
      "outputs": [
        {
          "internalType": "address",
          "name": "",
          "type": "address"
        }
      ],
      "stateMutability": "view",
      "type": "function"
    },
    {
      "inputs": [
        {
          "internalType": "uint256",
          "name": "tokenId",
          "type": "uint256"
        },
        {
          "internalType": "uint256",
          "name": "sizeInCC",
          "type": "uint256"
        },
        {
          "internalType": "uint256",
          "name": "price_per_cc",
          "type": "uint256"
        },
        {
          "internalType": "address",
          "name": "donor",
          "type": "address"
        },
        {
          "internalType": "address",
          "name": "bioBank",
          "type": "address"
        }
      ],
      "name": "listItem",
      "outputs": [],
      "stateMutability": "nonpayable",
      "type": "function"
    },
    {
      "inputs": [
        {
          "internalType": "address",
          "name": "",
          "type": "address"
        },
        {
          "internalType": "address",
          "name": "",
          "type": "address"
        },
        {
          "internalType": "uint256",
          "name": "",
          "type": "uint256"
        },
        {
          "internalType": "bytes",
          "name": "",
          "type": "bytes"
        }
      ],
      "name": "onERC721Received",
      "outputs": [
        {
          "internalType": "bytes4",
          "name": "",
          "type": "bytes4"
        }
      ],
      "stateMutability": "pure",
      "type": "function"
    },
    {
      "inputs": [],
      "name": "owner",
      "outputs": [
        {
          "internalType": "address",
          "name": "",
          "type": "address"
        }
      ],
      "stateMutability": "view",
      "type": "function"
    },
    {
      "inputs": [
        {
          "internalType": "bytes",
          "name": "performData",
          "type": "bytes"
        }
      ],
      "name": "performUpkeep",
      "outputs": [],
      "stateMutability": "nonpayable",
      "type": "function"
    },
    {
      "inputs": [],
      "name": "requestBuyAccess",
      "outputs": [],
      "stateMutability": "nonpayable",
      "type": "function"
    },
    {
      "inputs": [
        {
          "internalType": "address",
          "name": "_authenticator",
          "type": "address"
        }
      ],
      "name": "setAuthenticatorAddress",
      "outputs": [],
      "stateMutability": "nonpayable",
      "type": "function"
    },
    {
      "inputs": [
        {
          "internalType": "uint256",
          "name": "newIncentiveRate",
          "type": "uint256"
        }
      ],
      "name": "setDonorIncentiveRate",
      "outputs": [],
      "stateMutability": "nonpayable",
      "type": "function"
    },
    {
      "inputs": [
        {
          "internalType": "address",
          "name": "stemCells",
          "type": "address"
        }
      ],
      "name": "setTokenizedStemCells",
      "outputs": [],
      "stateMutability": "nonpayable",
      "type": "function"
    },
    {
      "inputs": [],
      "name": "tokenziedStemCells",
      "outputs": [
        {
          "internalType": "address",
          "name": "",
          "type": "address"
        }
      ],
      "stateMutability": "view",
      "type": "function"
    },
    {
      "inputs": [
        {
          "internalType": "address",
          "name": "newOwner",
          "type": "address"
        }
      ],
      "name": "transferOwnership",
      "outputs": [],
      "stateMutability": "nonpayable",
      "type": "function"
    },
    {
      "inputs": [
        {
          "internalType": "uint256",
          "name": "tokenId",
          "type": "uint256"
        },
        {
          "internalType": "enum AminoChainMarketplace.physicalStatus",
          "name": "status",
          "type": "uint8"
        }
      ],
      "name": "updateDeliveryStatus",
      "outputs": [],
      "stateMutability": "nonpayable",
      "type": "function"
    },
    {
      "inputs": [
        {
          "internalType": "uint256",
          "name": "tokenId",
          "type": "uint256"
        },
        {
          "internalType": "uint256",
          "name": "newPrice",
          "type": "uint256"
        }
      ],
      "name": "updateListing",
      "outputs": [],
      "stateMutability": "nonpayable",
      "type": "function"
    },
    {
      "inputs": [],
      "name": "withdrawLink",
      "outputs": [],
      "stateMutability": "nonpayable",
      "type": "function"
    }
  ],
  "bytecode": "0x60a060405260016005553480156200001657600080fd5b50604051620041ad380380620041ad8339810160408190526200003991620000c7565b600160005560078054336001600160a01b0319918216179091556008805482166001600160a01b0386811691909117909155858116608052600a8790556003805491851691909216179055600480546001600160a01b0319166001600160a01b03831617905550505050506200012e565b80516001600160a01b0381168114620000c257600080fd5b919050565b600080600080600060a08688031215620000e057600080fd5b85519450620000f260208701620000aa565b93506200010260408701620000aa565b92506200011260608701620000aa565b91506200012260808701620000aa565b90509295509295909350565b60805161402b62000182600039600081816104220152818161198c01528181611f2e01528181612028015281816121760152818161284801528181612930015281816129cb0152612d05015261402b6000f3fe608060405234801561001057600080fd5b50600436106101775760003560e01c8063823a6404116100d8578063ab7e56921161008c578063f2fde38b11610066578063f2fde38b146103f7578063fd68990a1461040a578063ff40e1d01461041d57600080fd5b8063ab7e5692146103be578063db3a48ae146103d1578063e7fb74c7146103e457600080fd5b80638da5cb5b116100bd5780638da5cb5b1461039b5780638dc654a2146103ae578063a4e5d3aa146103b657600080fd5b8063823a6404146103755780638d46e6471461038857600080fd5b8063266e53451161012f5780634585e33b116101145780634585e33b1461032e578063543538eb146103415780636e04ff0d1461035457600080fd5b8063266e534514610308578063305a67a81461031b57600080fd5b80631dfe0e84116101605780631dfe0e84146101e75780631fa2be91146102c65780632335c76b146102dd57600080fd5b80630179ea881461017c578063150b7a0214610191575b600080fd5b61018f61018a366004613880565b610444565b005b6101c961019f3660046138f9565b7f150b7a020000000000000000000000000000000000000000000000000000000095945050505050565b6040516001600160e01b031990911681526020015b60405180910390f35b61027b6101f536600461396c565b6040805160a081018252600080825260208201819052918101829052606081018290526080810191909152506000908152600c6020908152604091829020825160a08101845281546001600160a01b0390811682526001830154938201939093526002820154938101939093526003810154821660608401526004015416608082015290565b6040516101de919081516001600160a01b0390811682526020808401519083015260408084015190830152606080840151821690830152608092830151169181019190915260a00190565b6102cf600a5481565b6040519081526020016101de565b6009546102f0906001600160a01b031681565b6040516001600160a01b0390911681526020016101de565b61018f610316366004613985565b61064d565b61018f61032936600461396c565b6107af565b61018f61033c3660046139a2565b6108e0565b61018f61034f366004613985565b610c0c565b6103676103623660046139a2565b610d68565b6040516101de929190613a34565b6008546102f0906001600160a01b031681565b61018f610396366004613a4f565b611132565b6007546102f0906001600160a01b031681565b61018f6112bd565b61018f61145e565b61018f6103cc366004613a83565b6115e2565b61018f6103df36600461396c565b611b9e565b61018f6103f236600461396c565b611ca4565b61018f610405366004613985565b612479565b61018f610418366004613ae7565b6125e9565b6102f07f000000000000000000000000000000000000000000000000000000000000000081565b6007546001600160a01b031633146104a35760405162461bcd60e51b815260206004820181905260248201527f4d73672073656e64657220696e206e6f7420636f6e7472616374206f776e657260448201526064015b60405180910390fd5b6000828152600c6020908152604091829020825160a08101845281546001600160a01b03908116808352600184015494830194909452600283015494820194909452600382015484166060820152600490910154909216608083015261054b5760405162461bcd60e51b815260206004820152601360248201527f546f6b656e206973206e6f74206c697374656400000000000000000000000000604482015260640161049a565b818160400151036105c45760405162461bcd60e51b815260206004820152602760248201527f4f6c642070726963652063616e6e6f74206265207468652073616d652061732060448201527f746865206e657700000000000000000000000000000000000000000000000000606482015260840161049a565b6000838152600c60209081526040918290206002018490558281015160608085015160808087015186513381529586018a9052858701949094529184018790526001600160a01b03908116918401919091521660a082015290517f95dff81097f9b51a680e9265a346738285100e6e1ef72ecf96dddcf9f555f6cd9181900360c00190a1505050565b6007546001600160a01b031633146106a75760405162461bcd60e51b815260206004820181905260248201527f4d73672073656e64657220696e206e6f7420636f6e7472616374206f776e6572604482015260640161049a565b6009546001600160a01b038083169116036107045760405162461bcd60e51b815260206004820152601a60248201527f4e6577206164647265737320697320616c726561647920736574000000000000604482015260640161049a565b6001600160a01b03811661075a5760405162461bcd60e51b815260206004820152601d60248201527f496e76616c69642061757468656e74696361746f722061646472657373000000604482015260640161049a565b600980546001600160a01b0319166001600160a01b0383169081179091556040519081527f9da5210e450224b4d57208d165c46878ece9c9943decff672779dbb1fbb30701906020015b60405180910390a150565b6007546001600160a01b031633146108095760405162461bcd60e51b815260206004820181905260248201527f4d73672073656e64657220696e206e6f7420636f6e7472616374206f776e6572604482015260640161049a565b6000818152600c60205260409020546001600160a01b031661086d5760405162461bcd60e51b815260206004820152601360248201527f546f6b656e206973206e6f74206c697374656400000000000000000000000000604482015260640161049a565b6000818152600c602052604080822080546001600160a01b03199081168255600182018490556002820193909355600381018054841690556004018054909216909155517fbb625791aebea9aad62ce564144ea9b77e18f6fce707746bd3b4c308817dc7e2906107a49083815260200190565b6000806108ef83850185613bbd565b909250905060005b8251811015610a87576000600d600085848151811061091857610918613c21565b602002602001015181526020019081526020016000206040518060e0016040529081600082015481526020016001820160009054906101000a900460ff16600281111561096757610967613c37565b600281111561097857610978613c37565b815260018201546001600160a01b0361010090910481166020830152600280840154821660408401526003840154821660608401526004840154909116608083015260059092015460a090910152909150816020015160028111156109df576109df613c37565b14610a525760405162461bcd60e51b815260206004820152602760248201527f70726f766964656420746f6b656e496420686173206e6f74206265656e20646560448201527f6c69766572656400000000000000000000000000000000000000000000000000606482015260840161049a565b610a74848381518110610a6757610a67613c21565b60200260200101516126f1565b5080610a7f81613c63565b9150506108f7565b5060005b8151811015610c04576000600d6000848481518110610aac57610aac613c21565b602002602001015181526020019081526020016000206040518060e0016040529081600082015481526020016001820160009054906101000a900460ff166002811115610afb57610afb613c37565b6002811115610b0c57610b0c613c37565b815260018201546001600160a01b0361010090910481166020830152600283015481166040830152600383015481166060830152600483015416608082015260059091015460a090910152805190915062278d0090610b6b9042613c7c565b1015610bcf5760405162461bcd60e51b815260206004820152602d60248201527f70726f766964656420746f6b656e496420686173206e6f74207375727061737360448201526c1959081d1a5b59481b1a5b5a5d609a1b606482015260840161049a565b610bf1838381518110610be457610be4613c21565b6020026020010151612bd1565b5080610bfc81613c63565b915050610a8b565b505b50505050565b6007546001600160a01b03163314610c665760405162461bcd60e51b815260206004820181905260248201527f4d73672073656e64657220696e206e6f7420636f6e7472616374206f776e6572604482015260640161049a565b6008546001600160a01b0390811690821603610cc45760405162461bcd60e51b815260206004820152601a60248201527f4e6577206164647265737320697320616c726561647920736574000000000000604482015260640161049a565b6001600160a01b038116610d1a5760405162461bcd60e51b815260206004820152601960248201527f496e76616c6964207374656d43656c6c73206164647265737300000000000000604482015260640161049a565b600880546001600160a01b0319166001600160a01b0383169081179091556040519081527fa145565e729bfa7f063333631a66b2c7ef471c4a11e75f7a528170576f94c0fa906020016107a4565b6000606060008060005b600b54811015610ead576000600d6000600b8481548110610d9557610d95613c21565b906000526020600020015481526020019081526020016000206040518060e0016040529081600082015481526020016001820160009054906101000a900460ff166002811115610de757610de7613c37565b6002811115610df857610df8613c37565b815260018201546001600160a01b0361010090910481166020830152600280840154821660408401526003840154821660608401526004840154909116608083015260059092015460a09091015290915081602001516002811115610e5f57610e5f613c37565b03610e765783610e6e81613c63565b945050610e9a565b805162278d0090610e879042613c7c565b10610e9a5782610e9681613c63565b9350505b5080610ea581613c63565b915050610d72565b506000935060008267ffffffffffffffff811115610ecd57610ecd613b0c565b604051908082528060200260200182016040528015610ef6578160200160208202803683370190505b50905060008267ffffffffffffffff811115610f1457610f14613b0c565b604051908082528060200260200182016040528015610f3d578160200160208202803683370190505b50905060008060005b600b548110156110ff576000600d6000600b8481548110610f6957610f69613c21565b906000526020600020015481526020019081526020016000206040518060e0016040529081600082015481526020016001820160009054906101000a900460ff166002811115610fbb57610fbb613c37565b6002811115610fcc57610fcc613c37565b815260018201546001600160a01b0361010090910481166020830152600280840154821660408401526003840154821660608401526004840154909116608083015260059092015460a0909101529091508160200151600281111561103357611033613c37565b036110895760019950600b828154811061104f5761104f613c21565b906000526020600020015486858151811061106c5761106c613c21565b60209081029190910101528361108181613c63565b9450506110ec565b805162278d009061109a9042613c7c565b106110ec5760019950600b82815481106110b6576110b6613c21565b90600052602060002001548584815181106110d3576110d3613c21565b6020908102919091010152826110e881613c63565b9350505b50806110f781613c63565b915050610f46565b508383604051602001611113929190613cbf565b60405160208183030381529060405296505050505050505b9250929050565b6007546001600160a01b0316331461118c5760405162461bcd60e51b815260206004820181905260248201527f4d73672073656e64657220696e206e6f7420636f6e7472616374206f776e6572604482015260640161049a565b6000828152600d60209081526040808320815160e08101909252805482526001810154919290919083019060ff1660028111156111cb576111cb613c37565b60028111156111dc576111dc613c37565b815260018201546001600160a01b03610100909104811660208301526002830154811660408301526003830154811660608084019190915260048401548216608084015260059093015460a09092019190915290820151919250166112835760405162461bcd60e51b815260206004820152601460248201527f42757965722063616e6e6f74206265206e756c6c000000000000000000000000604482015260640161049a565b6000838152600d6020526040902060019081018054849260ff19909116908360028111156112b3576112b3613c37565b0217905550505050565b6007546001600160a01b031633146113175760405162461bcd60e51b815260206004820181905260248201527f4d73672073656e64657220696e206e6f7420636f6e7472616374206f776e6572604482015260640161049a565b600061132b6003546001600160a01b031690565b6040516370a0823160e01b81523060048201529091506001600160a01b0382169063a9059cbb90339083906370a0823190602401602060405180830381865afa15801561137c573d6000803e3d6000fd5b505050506040513d601f19601f820116820180604052508101906113a09190613ce4565b6040516001600160e01b031960e085901b1681526001600160a01b03909216600483015260248201526044016020604051808303816000875af11580156113eb573d6000803e3d6000fd5b505050506040513d601f19601f8201168201806040525081019061140f9190613cfd565b61145b5760405162461bcd60e51b815260206004820152601260248201527f556e61626c6520746f207472616e736665720000000000000000000000000000604482015260640161049a565b50565b60006114ab7f6331633565393238383038393465623662323764336361653139363730616133307ffd68990a00000000000000000000000000000000000000000000000000000000612eef565b90506115176040518060400160405280600381526020017f67657400000000000000000000000000000000000000000000000000000000008152506114ef33612f80565b6040516020016114ff9190613d1a565b60408051601f19818403018152919052839190612f9c565b6115966040518060400160405280600481526020017f70617468000000000000000000000000000000000000000000000000000000008152506040518060400160405280600681526020017f646f63746f72000000000000000000000000000000000000000000000000000081525083612f9c9092919063ffffffff16565b60006115c082600a6115b1670de0b6b3a76400006001613dab565b6115bb9190613dd8565b612fbf565b6000908152600f6020526040902080546001600160a01b031916331790555050565b6009546001600160a01b031633146116625760405162461bcd60e51b815260206004820152602860248201527f4d73672073656e64657220696e206e6f742061757468656e74696361746f722060448201527f636f6e7472616374000000000000000000000000000000000000000000000000606482015260840161049a565b6008546040516331a9108f60e11b81526004810187905233916001600160a01b031690636352211e90602401602060405180830381865afa1580156116ab573d6000803e3d6000fd5b505050506040513d601f19601f820116820180604052508101906116cf9190613dec565b6001600160a01b0316146117255760405162461bcd60e51b815260206004820152601c60248201527f546f6b656e206973206e6f74206f776e65642062792073656e64657200000000604482015260640161049a565b6000858152600c60205260409020546001600160a01b03161561178a5760405162461bcd60e51b815260206004820152601760248201527f546f6b656e20697320616c7265616479206c6973746564000000000000000000604482015260640161049a565b6001600160a01b0381166117e05760405162461bcd60e51b815260206004820152601660248201527f42696f42616e6b2063616e6e6f74206265206e756c6c00000000000000000000604482015260640161049a565b6001600160a01b0382166118365760405162461bcd60e51b815260206004820152601460248201527f446f6e6f722063616e6e6f74206265206e756c6c000000000000000000000000604482015260640161049a565b600084116118865760405162461bcd60e51b815260206004820152601360248201527f43432073697a652063616e6e6f74206265203000000000000000000000000000604482015260640161049a565b6008546040517fe985e9c50000000000000000000000000000000000000000000000000000000081523360048201523060248201526001600160a01b039091169063e985e9c590604401602060405180830381865afa1580156118ed573d6000803e3d6000fd5b505050506040513d601f19601f820116820180604052508101906119119190613cfd565b15156001146119885760405162461bcd60e51b815260206004820152603e60248201527f4d61726b6574706c61636520646f6573206e6f74206861766520617070726f7660448201527f616c2066726f6d206c6973746572206f6e204e465420636f6e74726163740000606482015260840161049a565b60007f00000000000000000000000000000000000000000000000000000000000000006001600160a01b031663313ce5676040518163ffffffff1660e01b8152600401602060405180830381865afa1580156119e8573d6000803e3d6000fd5b505050506040513d601f19601f82011682018060405250810190611a0c9190613e09565b611a1790600a613f10565b611a218686613dab565b611a2b9190613dab565b90506040518060a00160405280336001600160a01b03168152602001868152602001828152602001846001600160a01b03168152602001836001600160a01b0316815250600c600088815260200190815260200160002060008201518160000160006101000a8154816001600160a01b0302191690836001600160a01b03160217905550602082015181600101556040820151816002015560608201518160030160006101000a8154816001600160a01b0302191690836001600160a01b0316021790555060808201518160040160006101000a8154816001600160a01b0302191690836001600160a01b031602179055509050507f95dff81097f9b51a680e9265a346738285100e6e1ef72ecf96dddcf9f555f6cd338787848787604051611b8e969594939291906001600160a01b0396871681526020810195909552604085019390935260608401919091528316608083015290911660a082015260c00190565b60405180910390a1505050505050565b6007546001600160a01b03163314611bf85760405162461bcd60e51b815260206004820181905260248201527f4d73672073656e64657220696e206e6f7420636f6e7472616374206f776e6572604482015260640161049a565b80600a5403611c6f5760405162461bcd60e51b815260206004820152602960248201527f4e657720696e63656e746976652072617465206973207468652073616d65206160448201527f7320746865206f6c640000000000000000000000000000000000000000000000606482015260840161049a565b600a8190556040518181527f0e8bdd7f2b7add1b6b2292115d8f94f1b2a07f7b08085a30bcf25566a3811dba906020016107a4565b600260005403611cf65760405162461bcd60e51b815260206004820152601f60248201527f5265656e7472616e637947756172643a207265656e7472616e742063616c6c00604482015260640161049a565b60026000818155828152600c6020908152604091829020825160a08101845281546001600160a01b03908116808352600184015494830194909452948201549381019390935260038101548416606084015260040154909216608082015290611da15760405162461bcd60e51b815260206004820152601360248201527f546f6b656e206973206e6f74206c697374656400000000000000000000000000604482015260640161049a565b3360009081526010602052604090205460ff161515600114611e2b5760405162461bcd60e51b815260206004820152602160248201527f4d73672073656e646572206973206e6f7420617070726f76656420746f20627560448201527f7900000000000000000000000000000000000000000000000000000000000000606482015260840161049a565b6008546040516331a9108f60e11b81526004810184905233916001600160a01b031690636352211e90602401602060405180830381865afa158015611e74573d6000803e3d6000fd5b505050506040513d601f19601f82011682018060405250810190611e989190613dec565b6001600160a01b031603611f145760405162461bcd60e51b815260206004820152602360248201527f546f6b656e2073656c6c65722063616e6e6f742062757920746865697220746f60448201527f6b656e0000000000000000000000000000000000000000000000000000000000606482015260840161049a565b60408181015190516370a0823160e01b81523360048201527f00000000000000000000000000000000000000000000000000000000000000006001600160a01b0316906370a0823190602401602060405180830381865afa158015611f7d573d6000803e3d6000fd5b505050506040513d601f19601f82011682018060405250810190611fa19190613ce4565b1015611fef5760405162461bcd60e51b815260206004820152601f60248201527f4275796572277320555344432062616c656e636520697320746f6f206c6f7700604482015260640161049a565b60408181015190517fdd62ed3e0000000000000000000000000000000000000000000000000000000081523360048201523060248201527f00000000000000000000000000000000000000000000000000000000000000006001600160a01b03169063dd62ed3e90604401602060405180830381865afa158015612077573d6000803e3d6000fd5b505050506040513d601f19601f8201168201806040525081019061209b9190613ce4565b10156121355760405162461bcd60e51b815260206004820152605f60248201527f4d61726b6574706c61636520616c6c6f77616e63652066726f6d20627579657260448201527f206f6e205553444320636f6e7472616374206d7573742062652068696768657260648201527f207468616e206f7220657175616c20746f206c697374696e6720707269636500608482015260a40161049a565b60408181015190517f23b872dd00000000000000000000000000000000000000000000000000000000815233600482015230602482015260448101919091527f00000000000000000000000000000000000000000000000000000000000000006001600160a01b0316906323b872dd906064016020604051808303816000875af11580156121c7573d6000803e3d6000fd5b505050506040513d601f19601f820116820180604052508101906121eb9190613cfd565b506008548151604051632142170760e11b81526001600160a01b039182166004820152306024820152604481018590529116906342842e0e90606401600060405180830381600087803b15801561224157600080fd5b505af1158015612255573d6000803e3d6000fd5b5050600b80546001818101835560008390527f0175b7a638427703f0dbe7bb9bbf987a2551717b34e79f33b5b1008d1fa01db9909101869055905461229d9350909150613c7c565b6000838152600e6020908152604080832093909355825160e08101845242815280820183815285516001600160a01b0390811683870152336060808501919091526080808901518316908501528701511660a08301528585015160c0830152868452600d9092529290912082518155905160018083018054909160ff199091169083600281111561233057612330613c37565b0217905550604082810151600183810180547fffffffffffffffffffffff0000000000000000000000000000000000000000ff166101006001600160a01b0394851602179055606080860151600280870180546001600160a01b03199081169387169390931790556080808901516003808a01805486169289169290921790915560a0808b01516004808c0180548816928b169290921790915560c09b8c01516005909b019a909a5560008d8152600c60209081528a8220805488168155988901829055948801559086018054851690559490970180549092169091558786015188820151898401518a8801518851938816845233948401949094528288018c9052938201529190931694810194909452830152517f49cbf75a1a7fe14b3c89ebd4a77a8a203a6a7eba81fa25d978a23fb91a4e7848929181900390910190a150506001600055565b6007546001600160a01b031633146124d35760405162461bcd60e51b815260206004820181905260248201527f4d73672073656e64657220696e206e6f7420636f6e7472616374206f776e6572604482015260640161049a565b6007546001600160a01b03908116908216036125315760405162461bcd60e51b815260206004820152601c60248201527f4e6577206164647265737320697320616c7265616479206f776e657200000000604482015260640161049a565b6001600160a01b0381166125875760405162461bcd60e51b815260206004820152601560248201527f496e76616c6964206f776e657220616464726573730000000000000000000000604482015260640161049a565b600780546001600160a01b038381166001600160a01b031983168117909355604080519190921680825260208201939093527f7699c77f2404f9b6bbd003861bb4af8ae70b205e19e73d7ec7fe4590db59a6b791015b60405180910390a15050565b60008281526006602052604090205482906001600160a01b031633146126775760405162461bcd60e51b815260206004820152602860248201527f536f75726365206d75737420626520746865206f7261636c65206f662074686560448201527f2072657175657374000000000000000000000000000000000000000000000000606482015260840161049a565b60008181526006602052604080822080546001600160a01b03191690555182917f7cc135e0cebb02c3480ae5d74d377283180a2601f8f644edf7987b009316c63a91a2506000918252600f60209081526040808420546001600160a01b031684526010909152909120805460ff1916911515919091179055565b6000818152600d60209081526040808320815160e08101909252805482526001810154919290919083019060ff16600281111561273057612730613c37565b600281111561274157612741613c37565b815260018201546001600160a01b0361010090910481166020830152600280840154821660408401526003840154821660608401526004840154909116608083015260059092015460a090910152909150816020015160028111156127a8576127a8613c37565b1461281b5760405162461bcd60e51b815260206004820152602860248201527f506879736963616c206974656d20686173206e6f74206265656e2064656c697660448201527f6572656420796574000000000000000000000000000000000000000000000000606482015260840161049a565b6000600a548260c0015161282f9190613dd8565b90506000600a8360c001516128449190613dd8565b90507f00000000000000000000000000000000000000000000000000000000000000006001600160a01b031663a9059cbb846080015183856128869190613f1f565b8660c001516128959190613c7c565b6040516001600160e01b031960e085901b1681526001600160a01b03909216600483015260248201526044016020604051808303816000875af11580156128e0573d6000803e3d6000fd5b505050506040513d601f19601f820116820180604052508101906129049190613cfd565b50604083810151905163a9059cbb60e01b81526001600160a01b039182166004820152602481018390527f00000000000000000000000000000000000000000000000000000000000000009091169063a9059cbb906044016020604051808303816000875af115801561297b573d6000803e3d6000fd5b505050506040513d601f19601f8201168201806040525081019061299f9190613cfd565b5060a083015160405163a9059cbb60e01b81526001600160a01b039182166004820152602481018490527f00000000000000000000000000000000000000000000000000000000000000009091169063a9059cbb906044016020604051808303816000875af1158015612a16573d6000803e3d6000fd5b505050506040513d601f19601f82011682018060405250810190612a3a9190613cfd565b506008546060840151604051632142170760e11b81523060048201526001600160a01b039182166024820152604481018790529116906342842e0e90606401600060405180830381600087803b158015612a9357600080fd5b505af1158015612aa7573d6000803e3d6000fd5b5050506000858152600d6020908152604080832083815560018101805474ffffffffffffffffffffffffffffffffffffffffff191690556002810180546001600160a01b0319908116909155600382018054821690556004820180549091169055600501839055600e909152902054600b80549092508110612b2b57612b2b613c21565b90600052602060002001600090557f27bcccc09913cc028e5370d11c2faf7238f7f1f3ca85be446b64fdde04be06f083608001518460600151868660a001518760c001518787604051612bc397969594939291906001600160a01b03978816815295871660208701526040860194909452919094166060840152608083019390935260a082019290925260c081019190915260e00190565b60405180910390a150505050565b6000818152600d60209081526040808320815160e08101909252805482526001810154919290919083019060ff166002811115612c1057612c10613c37565b6002811115612c2157612c21613c37565b815260018201546001600160a01b0361010090910481166020830152600283015481166040830152600383015481166060830152600483015416608082015260059091015460a090910152805190915062278d0090612c809042613c7c565b1015612ce45760405162461bcd60e51b815260206004820152602d60248201527f70726f766964656420746f6b656e496420686173206e6f74207375727061737360448201526c1959081d1a5b59481b1a5b5a5d609a1b606482015260840161049a565b606081015160c082015160405163a9059cbb60e01b81526001600160a01b037f0000000000000000000000000000000000000000000000000000000000000000169263a9059cbb92612d4c926004016001600160a01b03929092168252602082015260400190565b6020604051808303816000875af1158015612d6b573d6000803e3d6000fd5b505050506040513d601f19601f82011682018060405250810190612d8f9190613cfd565b506008546040828101519051632142170760e11b81523060048201526001600160a01b039182166024820152604481018590529116906342842e0e90606401600060405180830381600087803b158015612de857600080fd5b505af1158015612dfc573d6000803e3d6000fd5b5050506000838152600d6020908152604080832083815560018101805474ffffffffffffffffffffffffffffffffffffffffff191690556002810180546001600160a01b0319908116909155600382018054821690556004820180549091169055600501839055600e909152902054600b80549092508110612e8057612e80613c21565b90600052602060002001600090557fea05c9bb4e93f6d16336ec17cc9e7ce7adaa9e97a8b7fed7a18f0e06c670112882826060015183608001518460c001516040516125dd94939291909384526001600160a01b03928316602085015291166040830152606082015260800190565b612f2d6040805160a0810182526000808252602080830182905282840182905260608084018390528451808601909552845283015290608082015290565b612f6b6040805160a0810182526000808252602080830182905282840182905260608084018390528451808601909552845283015290608082015290565b612f7781868686612fe0565b95945050505050565b6060612f966001600160a01b038316601461305c565b92915050565b6080830151612fab908361323d565b6080830151612fba908261323d565b505050565b600454600090612fd9906001600160a01b03168484613254565b9392505050565b61301e6040805160a0810182526000808252602080830182905282840182905260608084018390528451808601909552845283015290608082015290565b61302e8560800151610100613315565b50508284526001600160a01b03821660208501526001600160e01b031981166040850152835b949350505050565b6060600061306b836002613dab565b613076906002613f1f565b67ffffffffffffffff81111561308e5761308e613b0c565b6040519080825280601f01601f1916602001820160405280156130b8576020820181803683370190505b5090507f3000000000000000000000000000000000000000000000000000000000000000816000815181106130ef576130ef613c21565b60200101906001600160f81b031916908160001a9053507f78000000000000000000000000000000000000000000000000000000000000008160018151811061313a5761313a613c21565b60200101906001600160f81b031916908160001a905350600061315e846002613dab565b613169906001613f1f565b90505b60018111156131ee577f303132333435363738396162636465660000000000000000000000000000000085600f16601081106131aa576131aa613c21565b1a60f81b8282815181106131c0576131c0613c21565b60200101906001600160f81b031916908160001a90535060049490941c936131e781613f32565b905061316c565b508315612fd95760405162461bcd60e51b815260206004820181905260248201527f537472696e67733a20686578206c656e67746820696e73756666696369656e74604482015260640161049a565b61324a826003835161337a565b612fba8282613489565b600554600090613265816001613f1f565b600555835160408086015160808701515191516000937f4042994600000000000000000000000000000000000000000000000000000000936132b69386938493923092918a91600191602401613f49565b60408051601f198184030181529190526020810180517bffffffffffffffffffffffffffffffffffffffffffffffffffffffff166001600160e01b031990931692909217909152905061330b868386846134b0565b9695505050505050565b604080518082019091526060815260006020820152613335602083613fad565b1561335d57613345602083613fad565b613350906020613c7c565b61335a9083613f1f565b91505b506020828101829052604080518085526000815290920101905290565b60178167ffffffffffffffff161161339f57610c068360e0600585901b168317613641565b60ff8167ffffffffffffffff16116133dd576133c6836018611fe0600586901b1617613641565b50610c068367ffffffffffffffff83166001613666565b61ffff8167ffffffffffffffff161161341c57613405836019611fe0600586901b1617613641565b50610c068367ffffffffffffffff83166002613666565b63ffffffff8167ffffffffffffffff161161345d5761344683601a611fe0600586901b1617613641565b50610c068367ffffffffffffffff83166004613666565b61347283601b611fe0600586901b1617613641565b50610c068367ffffffffffffffff83166008613666565b604080518082019091526060815260006020820152612fd98384600001515184855161368c565b6040516bffffffffffffffffffffffff193060601b1660208201526034810184905260009060540160408051808303601f1901815282825280516020918201206000818152600690925291812080546001600160a01b0319166001600160a01b038a1617905590925082917fb5e6e01e79f91267dc17b4e6314d5d4d03593d2ceee0fbb452b750bd70ea5af99190a26003546040517f4000aea00000000000000000000000000000000000000000000000000000000081526001600160a01b0390911690634000aea09061358c90889087908790600401613fc1565b6020604051808303816000875af11580156135ab573d6000803e3d6000fd5b505050506040513d601f19601f820116820180604052508101906135cf9190613cfd565b6130545760405162461bcd60e51b815260206004820152602360248201527f756e61626c6520746f207472616e73666572416e6443616c6c20746f206f726160448201527f636c650000000000000000000000000000000000000000000000000000000000606482015260840161049a565b604080518082019091526060815260006020820152612fd98384600001515184613776565b6040805180820190915260608152600060208201526130548485600001515185856137d1565b60408051808201909152606081526000602082015282518211156136af57600080fd5b60208501516136be8386613f1f565b11156136f1576136f1856136e1876020015187866136dc9190613f1f565b613852565b6136ec906002613dab565b613869565b6000808651805187602083010193508088870111156137105787860182525b505050602084015b60208410613750578051825261372f602083613f1f565b915061373c602082613f1f565b9050613749602085613c7c565b9350613718565b51815160001960208690036101000a019081169019919091161790525083949350505050565b604080518082019091526060815260006020820152836020015183106137ab576137ab84856020015160026136ec9190613dab565b83518051602085830101848153508085036137c7576001810182525b5093949350505050565b60408051808201909152606081526000602082015260208501516137f58584613f1f565b111561380957613809856136e18685613f1f565b6000600161381984610100613fe9565b6138239190613c7c565b90508551838682010185831982511617815250805184870111156138475783860181525b509495945050505050565b600081831115613863575081612f96565b50919050565b81516138758383613315565b50610c068382613489565b6000806040838503121561389357600080fd5b50508035926020909101359150565b6001600160a01b038116811461145b57600080fd5b60008083601f8401126138c957600080fd5b50813567ffffffffffffffff8111156138e157600080fd5b60208301915083602082850101111561112b57600080fd5b60008060008060006080868803121561391157600080fd5b853561391c816138a2565b9450602086013561392c816138a2565b935060408601359250606086013567ffffffffffffffff81111561394f57600080fd5b61395b888289016138b7565b969995985093965092949392505050565b60006020828403121561397e57600080fd5b5035919050565b60006020828403121561399757600080fd5b8135612fd9816138a2565b600080602083850312156139b557600080fd5b823567ffffffffffffffff8111156139cc57600080fd5b6139d8858286016138b7565b90969095509350505050565b60005b838110156139ff5781810151838201526020016139e7565b50506000910152565b60008151808452613a208160208601602086016139e4565b601f01601f19169290920160200192915050565b82151581526040602082015260006130546040830184613a08565b60008060408385031215613a6257600080fd5b82359150602083013560038110613a7857600080fd5b809150509250929050565b600080600080600060a08688031215613a9b57600080fd5b8535945060208601359350604086013592506060860135613abb816138a2565b91506080860135613acb816138a2565b809150509295509295909350565b801515811461145b57600080fd5b60008060408385031215613afa57600080fd5b823591506020830135613a7881613ad9565b634e487b7160e01b600052604160045260246000fd5b600082601f830112613b3357600080fd5b8135602067ffffffffffffffff80831115613b5057613b50613b0c565b8260051b604051601f19603f83011681018181108482111715613b7557613b75613b0c565b604052938452858101830193838101925087851115613b9357600080fd5b83870191505b84821015613bb257813583529183019190830190613b99565b979650505050505050565b60008060408385031215613bd057600080fd5b823567ffffffffffffffff80821115613be857600080fd5b613bf486838701613b22565b93506020850135915080821115613c0a57600080fd5b50613c1785828601613b22565b9150509250929050565b634e487b7160e01b600052603260045260246000fd5b634e487b7160e01b600052602160045260246000fd5b634e487b7160e01b600052601160045260246000fd5b600060018201613c7557613c75613c4d565b5060010190565b81810381811115612f9657612f96613c4d565b600081518084526020808501945080840160005b8381101561384757815187529582019590820190600101613ca3565b604081526000613cd26040830185613c8f565b8281036020840152612f778185613c8f565b600060208284031215613cf657600080fd5b5051919050565b600060208284031215613d0f57600080fd5b8151612fd981613ad9565b7f68747470733a2f2f616d696e6f2d636861696e2d646f63746f72732d7265676981527f737472792e6865726f6b756170702e636f6d2f69732d69742d646f63746f722d60208201527f77616c6c65742f00000000000000000000000000000000000000000000000000604082015260008251613d9e8160478501602087016139e4565b9190910160470192915050565b8082028115828204841417612f9657612f96613c4d565b634e487b7160e01b600052601260045260246000fd5b600082613de757613de7613dc2565b500490565b600060208284031215613dfe57600080fd5b8151612fd9816138a2565b600060208284031215613e1b57600080fd5b815160ff81168114612fd957600080fd5b600181815b80851115613e67578160001904821115613e4d57613e4d613c4d565b80851615613e5a57918102915b93841c9390800290613e31565b509250929050565b600082613e7e57506001612f96565b81613e8b57506000612f96565b8160018114613ea15760028114613eab57613ec7565b6001915050612f96565b60ff841115613ebc57613ebc613c4d565b50506001821b612f96565b5060208310610133831016604e8410600b8410161715613eea575081810a612f96565b613ef48383613e2c565b8060001904821115613f0857613f08613c4d565b029392505050565b6000612fd960ff841683613e6f565b80820180821115612f9657612f96613c4d565b600081613f4157613f41613c4d565b506000190190565b60006101006001600160a01b03808c1684528a60208501528960408501528089166060850152506001600160e01b0319871660808401528560a08401528460c08401528060e0840152613f9e81840185613a08565b9b9a5050505050505050505050565b600082613fbc57613fbc613dc2565b500690565b6001600160a01b0384168152826020820152606060408201526000612f776060830184613a08565b6000612fd98383613e6f56fea2646970667358221220db23318f8d8b79ef0c040eda8031ca4adba5142190acb317f463d47c0c0d10c964736f6c63430008110033",
  "linkReferences": {},
  "deployedLinkReferences": {}
}