{
  "_format": "hh-sol-artifact-1",
  "contractName": "AminoChainMarketplace",
  "sourceName": "contracts/AminoChainMarketplace.sol",
  "abi": [
    {
      "inputs": [
        {
          "internalType": "uint256",
          "name": "_donorIncentiveRate",
          "type": "uint256"
        },
        {
          "internalType": "address",
          "name": "_usdc",
          "type": "address"
        },
        {
          "internalType": "address",
          "name": "_tokenizedStemCells",
          "type": "address"
        },
        {
          "internalType": "address",
          "name": "_chainlinkToken",
          "type": "address"
        },
        {
          "internalType": "address",
          "name": "_chainlinkOracle",
          "type": "address"
        }
      ],
      "stateMutability": "nonpayable",
      "type": "constructor"
    },
    {
      "anonymous": false,
      "inputs": [
        {
          "indexed": true,
          "internalType": "bytes32",
          "name": "id",
          "type": "bytes32"
        }
      ],
      "name": "ChainlinkCancelled",
      "type": "event"
    },
    {
      "anonymous": false,
      "inputs": [
        {
          "indexed": true,
          "internalType": "bytes32",
          "name": "id",
          "type": "bytes32"
        }
      ],
      "name": "ChainlinkFulfilled",
      "type": "event"
    },
    {
      "anonymous": false,
      "inputs": [
        {
          "indexed": true,
          "internalType": "bytes32",
          "name": "id",
          "type": "bytes32"
        }
      ],
      "name": "ChainlinkRequested",
      "type": "event"
    },
    {
      "anonymous": false,
      "inputs": [
        {
          "indexed": false,
          "internalType": "address",
          "name": "authenticator",
          "type": "address"
        }
      ],
      "name": "authenticatorAddressSet",
      "type": "event"
    },
    {
      "anonymous": false,
      "inputs": [
        {
          "indexed": false,
          "internalType": "uint256",
          "name": "tokenId",
          "type": "uint256"
        }
      ],
      "name": "listingCanceled",
      "type": "event"
    },
    {
      "anonymous": false,
      "inputs": [
        {
          "indexed": false,
          "internalType": "uint256",
          "name": "newIncentiveRate",
          "type": "uint256"
        }
      ],
      "name": "newDonorIncentiveRate",
      "type": "event"
    },
    {
      "anonymous": false,
      "inputs": [
        {
          "indexed": false,
          "internalType": "address",
          "name": "seller",
          "type": "address"
        },
        {
          "indexed": false,
          "internalType": "uint256",
          "name": "tokenId",
          "type": "uint256"
        },
        {
          "indexed": false,
          "internalType": "uint256",
          "name": "sizeInCC",
          "type": "uint256"
        },
        {
          "indexed": false,
          "internalType": "uint256",
          "name": "price",
          "type": "uint256"
        },
        {
          "indexed": false,
          "internalType": "address",
          "name": "donor",
          "type": "address"
        },
        {
          "indexed": false,
          "internalType": "address",
          "name": "bioBank",
          "type": "address"
        }
      ],
      "name": "newListing",
      "type": "event"
    },
    {
      "anonymous": false,
      "inputs": [
        {
          "indexed": false,
          "internalType": "address",
          "name": "oldOwner",
          "type": "address"
        },
        {
          "indexed": false,
          "internalType": "address",
          "name": "newOwner",
          "type": "address"
        }
      ],
      "name": "ownershipTransferred",
      "type": "event"
    },
    {
      "anonymous": false,
      "inputs": [
        {
          "indexed": false,
          "internalType": "address",
          "name": "bioBank",
          "type": "address"
        },
        {
          "indexed": false,
          "internalType": "address",
          "name": "buyer",
          "type": "address"
        },
        {
          "indexed": false,
          "internalType": "uint256",
          "name": "tokenId",
          "type": "uint256"
        },
        {
          "indexed": false,
          "internalType": "address",
          "name": "donor",
          "type": "address"
        },
        {
          "indexed": false,
          "internalType": "uint256",
          "name": "salePrice",
          "type": "uint256"
        },
        {
          "indexed": false,
          "internalType": "uint256",
          "name": "donorIncentive",
          "type": "uint256"
        },
        {
          "indexed": false,
          "internalType": "uint256",
          "name": "protocolFee",
          "type": "uint256"
        }
      ],
      "name": "saleCompleted",
      "type": "event"
    },
    {
      "anonymous": false,
      "inputs": [
        {
          "indexed": false,
          "internalType": "address",
          "name": "bioBank",
          "type": "address"
        },
        {
          "indexed": false,
          "internalType": "address",
          "name": "buyer",
          "type": "address"
        },
        {
          "indexed": false,
          "internalType": "uint256",
          "name": "tokenId",
          "type": "uint256"
        },
        {
          "indexed": false,
          "internalType": "uint256",
          "name": "sizeInCC",
          "type": "uint256"
        },
        {
          "indexed": false,
          "internalType": "address",
          "name": "donor",
          "type": "address"
        },
        {
          "indexed": false,
          "internalType": "uint256",
          "name": "escrowedPrice",
          "type": "uint256"
        }
      ],
      "name": "saleInitiated",
      "type": "event"
    },
    {
      "anonymous": false,
      "inputs": [
        {
          "indexed": false,
          "internalType": "uint256",
          "name": "tokenId",
          "type": "uint256"
        },
        {
          "indexed": false,
          "internalType": "address",
          "name": "buyer",
          "type": "address"
        },
        {
          "indexed": false,
          "internalType": "address",
          "name": "bioBank",
          "type": "address"
        },
        {
          "indexed": false,
          "internalType": "uint256",
          "name": "refundTotal",
          "type": "uint256"
        }
      ],
      "name": "saleRefunded",
      "type": "event"
    },
    {
      "anonymous": false,
      "inputs": [
        {
          "indexed": false,
          "internalType": "address",
          "name": "stemCells",
          "type": "address"
        }
      ],
      "name": "stemCellsAddressSet",
      "type": "event"
    },
    {
      "inputs": [],
      "name": "DEFAULT_PRICE_PER_CC",
      "outputs": [
        {
          "internalType": "uint256",
          "name": "",
          "type": "uint256"
        }
      ],
      "stateMutability": "view",
      "type": "function"
    },
    {
      "inputs": [],
      "name": "authenticator",
      "outputs": [
        {
          "internalType": "address",
          "name": "",
          "type": "address"
        }
      ],
      "stateMutability": "view",
      "type": "function"
    },
    {
      "inputs": [
        {
          "internalType": "uint256",
          "name": "tokenId",
          "type": "uint256"
        }
      ],
      "name": "buyItem",
      "outputs": [],
      "stateMutability": "nonpayable",
      "type": "function"
    },
    {
      "inputs": [
        {
          "internalType": "uint256",
          "name": "tokenId",
          "type": "uint256"
        }
      ],
      "name": "cancelListing",
      "outputs": [],
      "stateMutability": "nonpayable",
      "type": "function"
    },
    {
      "inputs": [
        {
          "internalType": "bytes",
          "name": "",
          "type": "bytes"
        }
      ],
      "name": "checkUpkeep",
      "outputs": [
        {
          "internalType": "bool",
          "name": "upkeepNeeded",
          "type": "bool"
        },
        {
          "internalType": "bytes",
          "name": "performData",
          "type": "bytes"
        }
      ],
      "stateMutability": "view",
      "type": "function"
    },
    {
      "inputs": [],
      "name": "donorIncentiveRate",
      "outputs": [
        {
          "internalType": "uint256",
          "name": "",
          "type": "uint256"
        }
      ],
      "stateMutability": "view",
      "type": "function"
    },
    {
      "inputs": [
        {
          "internalType": "bytes32",
          "name": "_requestId",
          "type": "bytes32"
        },
        {
          "internalType": "bool",
          "name": "isDoctorOrResearcher",
          "type": "bool"
        }
      ],
      "name": "fulfill",
      "outputs": [],
      "stateMutability": "nonpayable",
      "type": "function"
    },
    {
      "inputs": [
        {
          "internalType": "uint256",
          "name": "tokenId",
          "type": "uint256"
        }
      ],
      "name": "getListingData",
      "outputs": [
        {
          "components": [
            {
              "internalType": "address",
              "name": "seller",
              "type": "address"
            },
            {
              "internalType": "uint256",
              "name": "sizeInCC",
              "type": "uint256"
            },
            {
              "internalType": "uint256",
              "name": "price",
              "type": "uint256"
            },
            {
              "internalType": "address",
              "name": "donor",
              "type": "address"
            },
            {
              "internalType": "address",
              "name": "bioBank",
              "type": "address"
            }
          ],
          "internalType": "struct AminoChainMarketplace.Listing",
          "name": "",
          "type": "tuple"
        }
      ],
      "stateMutability": "view",
      "type": "function"
    },
    {
      "inputs": [],
      "name": "i_usdc",
      "outputs": [
        {
          "internalType": "address",
          "name": "",
          "type": "address"
        }
      ],
      "stateMutability": "view",
      "type": "function"
    },
    {
      "inputs": [
        {
          "internalType": "uint256",
          "name": "tokenId",
          "type": "uint256"
        },
        {
          "internalType": "uint256",
          "name": "sizeInCC",
          "type": "uint256"
        },
        {
          "internalType": "address",
          "name": "donor",
          "type": "address"
        },
        {
          "internalType": "address",
          "name": "bioBank",
          "type": "address"
        }
      ],
      "name": "listItem",
      "outputs": [],
      "stateMutability": "nonpayable",
      "type": "function"
    },
    {
      "inputs": [
        {
          "internalType": "address",
          "name": "",
          "type": "address"
        },
        {
          "internalType": "address",
          "name": "",
          "type": "address"
        },
        {
          "internalType": "uint256",
          "name": "",
          "type": "uint256"
        },
        {
          "internalType": "bytes",
          "name": "",
          "type": "bytes"
        }
      ],
      "name": "onERC721Received",
      "outputs": [
        {
          "internalType": "bytes4",
          "name": "",
          "type": "bytes4"
        }
      ],
      "stateMutability": "pure",
      "type": "function"
    },
    {
      "inputs": [],
      "name": "owner",
      "outputs": [
        {
          "internalType": "address",
          "name": "",
          "type": "address"
        }
      ],
      "stateMutability": "view",
      "type": "function"
    },
    {
      "inputs": [
        {
          "internalType": "bytes",
          "name": "performData",
          "type": "bytes"
        }
      ],
      "name": "performUpkeep",
      "outputs": [],
      "stateMutability": "nonpayable",
      "type": "function"
    },
    {
      "inputs": [],
      "name": "requestBuyAccess",
      "outputs": [],
      "stateMutability": "nonpayable",
      "type": "function"
    },
    {
      "inputs": [
        {
          "internalType": "address",
          "name": "_authenticator",
          "type": "address"
        }
      ],
      "name": "setAuthenticatorAddress",
      "outputs": [],
      "stateMutability": "nonpayable",
      "type": "function"
    },
    {
      "inputs": [
        {
          "internalType": "uint256",
          "name": "newIncentiveRate",
          "type": "uint256"
        }
      ],
      "name": "setDonorIncentiveRate",
      "outputs": [],
      "stateMutability": "nonpayable",
      "type": "function"
    },
    {
      "inputs": [
        {
          "internalType": "address",
          "name": "stemCells",
          "type": "address"
        }
      ],
      "name": "setTokenizedStemCells",
      "outputs": [],
      "stateMutability": "nonpayable",
      "type": "function"
    },
    {
      "inputs": [],
      "name": "tokenziedStemCells",
      "outputs": [
        {
          "internalType": "address",
          "name": "",
          "type": "address"
        }
      ],
      "stateMutability": "view",
      "type": "function"
    },
    {
      "inputs": [
        {
          "internalType": "address",
          "name": "newOwner",
          "type": "address"
        }
      ],
      "name": "transferOwnership",
      "outputs": [],
      "stateMutability": "nonpayable",
      "type": "function"
    },
    {
      "inputs": [
        {
          "internalType": "uint256",
          "name": "tokenId",
          "type": "uint256"
        },
        {
          "internalType": "uint256",
          "name": "status",
          "type": "uint256"
        }
      ],
      "name": "updateDeliveryStatus",
      "outputs": [],
      "stateMutability": "nonpayable",
      "type": "function"
    },
    {
      "inputs": [
        {
          "internalType": "uint256",
          "name": "tokenId",
          "type": "uint256"
        },
        {
          "internalType": "uint256",
          "name": "newPrice",
          "type": "uint256"
        }
      ],
      "name": "updateListing",
      "outputs": [],
      "stateMutability": "nonpayable",
      "type": "function"
    },
    {
      "inputs": [],
      "name": "withdrawLink",
      "outputs": [],
      "stateMutability": "nonpayable",
      "type": "function"
    }
  ],
  "bytecode": "0x60a060405260016005553480156200001657600080fd5b50604051620040fd380380620040fd8339810160408190526200003991620000c7565b600160005560078054336001600160a01b0319918216179091556008805482166001600160a01b0386811691909117909155858116608052600a8790556003805491851691909216179055600480546001600160a01b0319166001600160a01b03831617905550505050506200012e565b80516001600160a01b0381168114620000c257600080fd5b919050565b600080600080600060a08688031215620000e057600080fd5b85519450620000f260208701620000aa565b93506200010260408701620000aa565b92506200011260608701620000aa565b91506200012260808701620000aa565b90509295509295909350565b608051613f7462000189600039600081816104360152818161174f015281816118490152818161199701528181611f9e015281816126dd015281816127cb015281816128b30152818161294e0152612c880152613f746000f3fe608060405234801561001057600080fd5b50600436106101825760003560e01c80638da5cb5b116100d8578063e7fb74c71161008c578063f3945bb811610066578063f3945bb81461040b578063fd68990a1461041e578063ff40e1d01461043157600080fd5b8063e7fb74c7146103d2578063eef06bbd146103e5578063f2fde38b146103f857600080fd5b8063a353e0c5116100bd578063a353e0c5146103ae578063a4e5d3aa146103b7578063db3a48ae146103bf57600080fd5b80638da5cb5b146103935780638dc654a2146103a657600080fd5b8063266e53451161013a578063543538eb11610114578063543538eb1461034c5780636e04ff0d1461035f578063823a64041461038057600080fd5b8063266e534514610313578063305a67a8146103265780634585e33b1461033957600080fd5b80631dfe0e841161016b5780631dfe0e84146101f25780631fa2be91146102d15780632335c76b146102e857600080fd5b80630179ea8814610187578063150b7a021461019c575b600080fd5b61019a6101953660046137fe565b610458565b005b6101d46101aa366004613877565b7f150b7a020000000000000000000000000000000000000000000000000000000095945050505050565b6040516001600160e01b031990911681526020015b60405180910390f35b6102866102003660046138ea565b6040805160a081018252600080825260208201819052918101829052606081018290526080810191909152506000908152600c6020908152604091829020825160a08101845281546001600160a01b0390811682526001830154938201939093526002820154938101939093526003810154821660608401526004015416608082015290565b6040516101e9919081516001600160a01b0390811682526020808401519083015260408084015190830152606080840151821690830152608092830151169181019190915260a00190565b6102da600a5481565b6040519081526020016101e9565b6009546102fb906001600160a01b031681565b6040516001600160a01b0390911681526020016101e9565b61019a610321366004613903565b610661565b61019a6103343660046138ea565b61076d565b61019a610347366004613920565b61089e565b61019a61035a366004613903565b610bca565b61037261036d366004613920565b610cd0565b6040516101e99291906139b2565b6008546102fb906001600160a01b031681565b6007546102fb906001600160a01b031681565b61019a61109a565b6102da61057881565b61019a61123b565b61019a6103cd3660046138ea565b6113bf565b61019a6103e03660046138ea565b6114c5565b61019a6103f33660046139cd565b611c9a565b61019a610406366004613903565b612152565b61019a6104193660046137fe565b61226c565b61019a61042c366004613a25565b612491565b6102fb7f000000000000000000000000000000000000000000000000000000000000000081565b6007546001600160a01b031633146104b75760405162461bcd60e51b815260206004820181905260248201527f4d73672073656e64657220696e206e6f7420636f6e7472616374206f776e657260448201526064015b60405180910390fd5b6000828152600c6020908152604091829020825160a08101845281546001600160a01b03908116808352600184015494830194909452600283015494820194909452600382015484166060820152600490910154909216608083015261055f5760405162461bcd60e51b815260206004820152601360248201527f546f6b656e206973206e6f74206c69737465640000000000000000000000000060448201526064016104ae565b818160400151036105d85760405162461bcd60e51b815260206004820152602760248201527f4f6c642070726963652063616e6e6f74206265207468652073616d652061732060448201527f746865206e65770000000000000000000000000000000000000000000000000060648201526084016104ae565b6000838152600c60209081526040918290206002018490558281015160608085015160808087015186513381529586018a9052858701949094529184018790526001600160a01b03908116918401919091521660a082015290517f95dff81097f9b51a680e9265a346738285100e6e1ef72ecf96dddcf9f555f6cd9181900360c00190a1505050565b6007546001600160a01b031633146106bb5760405162461bcd60e51b815260206004820181905260248201527f4d73672073656e64657220696e206e6f7420636f6e7472616374206f776e657260448201526064016104ae565b6009546001600160a01b038083169116036107185760405162461bcd60e51b815260206004820152601a60248201527f4e6577206164647265737320697320616c72656164792073657400000000000060448201526064016104ae565b600980546001600160a01b0319166001600160a01b0383169081179091556040519081527f9da5210e450224b4d57208d165c46878ece9c9943decff672779dbb1fbb30701906020015b60405180910390a150565b6007546001600160a01b031633146107c75760405162461bcd60e51b815260206004820181905260248201527f4d73672073656e64657220696e206e6f7420636f6e7472616374206f776e657260448201526064016104ae565b6000818152600c60205260409020546001600160a01b031661082b5760405162461bcd60e51b815260206004820152601360248201527f546f6b656e206973206e6f74206c69737465640000000000000000000000000060448201526064016104ae565b6000818152600c602052604080822080546001600160a01b03199081168255600182018490556002820193909355600381018054841690556004018054909216909155517fbb625791aebea9aad62ce564144ea9b77e18f6fce707746bd3b4c308817dc7e2906107629083815260200190565b6000806108ad83850185613b06565b909250905060005b8251811015610a45576000600d60008584815181106108d6576108d6613b6a565b602002602001015181526020019081526020016000206040518060e0016040529081600082015481526020016001820160009054906101000a900460ff16600281111561092557610925613b80565b600281111561093657610936613b80565b815260018201546001600160a01b0361010090910481166020830152600280840154821660408401526003840154821660608401526004840154909116608083015260059092015460a0909101529091508160200151600281111561099d5761099d613b80565b14610a105760405162461bcd60e51b815260206004820152602760248201527f70726f766964656420746f6b656e496420686173206e6f74206265656e20646560448201527f6c6976657265640000000000000000000000000000000000000000000000000060648201526084016104ae565b610a32848381518110610a2557610a25613b6a565b6020026020010151612599565b5080610a3d81613bac565b9150506108b5565b5060005b8151811015610bc2576000600d6000848481518110610a6a57610a6a613b6a565b602002602001015181526020019081526020016000206040518060e0016040529081600082015481526020016001820160009054906101000a900460ff166002811115610ab957610ab9613b80565b6002811115610aca57610aca613b80565b815260018201546001600160a01b0361010090910481166020830152600283015481166040830152600383015481166060830152600483015416608082015260059091015460a090910152805190915062278d0090610b299042613bc5565b1015610b8d5760405162461bcd60e51b815260206004820152602d60248201527f70726f766964656420746f6b656e496420686173206e6f74207375727061737360448201526c1959081d1a5b59481b1a5b5a5d609a1b60648201526084016104ae565b610baf838381518110610ba257610ba2613b6a565b6020026020010151612b54565b5080610bba81613bac565b915050610a49565b505b50505050565b6007546001600160a01b03163314610c245760405162461bcd60e51b815260206004820181905260248201527f4d73672073656e64657220696e206e6f7420636f6e7472616374206f776e657260448201526064016104ae565b6008546001600160a01b0390811690821603610c825760405162461bcd60e51b815260206004820152601a60248201527f4e6577206164647265737320697320616c72656164792073657400000000000060448201526064016104ae565b600880546001600160a01b0319166001600160a01b0383169081179091556040519081527fa145565e729bfa7f063333631a66b2c7ef471c4a11e75f7a528170576f94c0fa90602001610762565b6000606060008060005b600b54811015610e15576000600d6000600b8481548110610cfd57610cfd613b6a565b906000526020600020015481526020019081526020016000206040518060e0016040529081600082015481526020016001820160009054906101000a900460ff166002811115610d4f57610d4f613b80565b6002811115610d6057610d60613b80565b815260018201546001600160a01b0361010090910481166020830152600280840154821660408401526003840154821660608401526004840154909116608083015260059092015460a09091015290915081602001516002811115610dc757610dc7613b80565b03610dde5783610dd681613bac565b945050610e02565b805162278d0090610def9042613bc5565b10610e025782610dfe81613bac565b9350505b5080610e0d81613bac565b915050610cda565b506000935060008267ffffffffffffffff811115610e3557610e35613a55565b604051908082528060200260200182016040528015610e5e578160200160208202803683370190505b50905060008267ffffffffffffffff811115610e7c57610e7c613a55565b604051908082528060200260200182016040528015610ea5578160200160208202803683370190505b50905060008060005b600b54811015611067576000600d6000600b8481548110610ed157610ed1613b6a565b906000526020600020015481526020019081526020016000206040518060e0016040529081600082015481526020016001820160009054906101000a900460ff166002811115610f2357610f23613b80565b6002811115610f3457610f34613b80565b815260018201546001600160a01b0361010090910481166020830152600280840154821660408401526003840154821660608401526004840154909116608083015260059092015460a09091015290915081602001516002811115610f9b57610f9b613b80565b03610ff15760019950600b8281548110610fb757610fb7613b6a565b9060005260206000200154868581518110610fd457610fd4613b6a565b602090810291909101015283610fe981613bac565b945050611054565b805162278d00906110029042613bc5565b106110545760019950600b828154811061101e5761101e613b6a565b906000526020600020015485848151811061103b5761103b613b6a565b60209081029190910101528261105081613bac565b9350505b508061105f81613bac565b915050610eae565b50838360405160200161107b929190613c08565b60405160208183030381529060405296505050505050505b9250929050565b6007546001600160a01b031633146110f45760405162461bcd60e51b815260206004820181905260248201527f4d73672073656e64657220696e206e6f7420636f6e7472616374206f776e657260448201526064016104ae565b60006111086003546001600160a01b031690565b6040516370a0823160e01b81523060048201529091506001600160a01b0382169063a9059cbb90339083906370a0823190602401602060405180830381865afa158015611159573d6000803e3d6000fd5b505050506040513d601f19601f8201168201806040525081019061117d9190613c2d565b6040516001600160e01b031960e085901b1681526001600160a01b03909216600483015260248201526044016020604051808303816000875af11580156111c8573d6000803e3d6000fd5b505050506040513d601f19601f820116820180604052508101906111ec9190613c46565b6112385760405162461bcd60e51b815260206004820152601260248201527f556e61626c6520746f207472616e73666572000000000000000000000000000060448201526064016104ae565b50565b60006112887f6331633565393238383038393465623662323764336361653139363730616133307ffd68990a00000000000000000000000000000000000000000000000000000000612e72565b90506112f46040518060400160405280600381526020017f67657400000000000000000000000000000000000000000000000000000000008152506112cc33612f03565b6040516020016112dc9190613c63565b60408051601f19818403018152919052839190612f1f565b6113736040518060400160405280600481526020017f70617468000000000000000000000000000000000000000000000000000000008152506040518060400160405280600681526020017f646f63746f72000000000000000000000000000000000000000000000000000081525083612f1f9092919063ffffffff16565b600061139d82600a61138e670de0b6b3a76400006001613cf4565b6113989190613d21565b612f3d565b6000908152600f6020526040902080546001600160a01b031916331790555050565b6007546001600160a01b031633146114195760405162461bcd60e51b815260206004820181905260248201527f4d73672073656e64657220696e206e6f7420636f6e7472616374206f776e657260448201526064016104ae565b80600a54036114905760405162461bcd60e51b815260206004820152602960248201527f4e657720696e63656e746976652072617465206973207468652073616d65206160448201527f7320746865206f6c64000000000000000000000000000000000000000000000060648201526084016104ae565b600a8190556040518181527f0e8bdd7f2b7add1b6b2292115d8f94f1b2a07f7b08085a30bcf25566a3811dba90602001610762565b6002600054036115175760405162461bcd60e51b815260206004820152601f60248201527f5265656e7472616e637947756172643a207265656e7472616e742063616c6c0060448201526064016104ae565b60026000818155828152600c6020908152604091829020825160a08101845281546001600160a01b039081168083526001840154948301949094529482015493810193909352600381015484166060840152600401549092166080820152906115c25760405162461bcd60e51b815260206004820152601360248201527f546f6b656e206973206e6f74206c69737465640000000000000000000000000060448201526064016104ae565b3360009081526010602052604090205460ff16151560011461164c5760405162461bcd60e51b815260206004820152602160248201527f4d73672073656e646572206973206e6f7420617070726f76656420746f20627560448201527f790000000000000000000000000000000000000000000000000000000000000060648201526084016104ae565b6008546040516331a9108f60e11b81526004810184905233916001600160a01b031690636352211e90602401602060405180830381865afa158015611695573d6000803e3d6000fd5b505050506040513d601f19601f820116820180604052508101906116b99190613d35565b6001600160a01b0316036117355760405162461bcd60e51b815260206004820152602360248201527f546f6b656e2073656c6c65722063616e6e6f742062757920746865697220746f60448201527f6b656e000000000000000000000000000000000000000000000000000000000060648201526084016104ae565b60408181015190516370a0823160e01b81523360048201527f00000000000000000000000000000000000000000000000000000000000000006001600160a01b0316906370a0823190602401602060405180830381865afa15801561179e573d6000803e3d6000fd5b505050506040513d601f19601f820116820180604052508101906117c29190613c2d565b10156118105760405162461bcd60e51b815260206004820152601f60248201527f4275796572277320555344432062616c656e636520697320746f6f206c6f770060448201526064016104ae565b60408181015190517fdd62ed3e0000000000000000000000000000000000000000000000000000000081523360048201523060248201527f00000000000000000000000000000000000000000000000000000000000000006001600160a01b03169063dd62ed3e90604401602060405180830381865afa158015611898573d6000803e3d6000fd5b505050506040513d601f19601f820116820180604052508101906118bc9190613c2d565b10156119565760405162461bcd60e51b815260206004820152605360248201527f4d61726b6574706c61636520616c6c6f77616e63652066726f6d20627579657260448201527f206f6e205553444320636f6e7472616374206d7573742062652068696768657260648201527f207468616e206c697374696e6720707269636500000000000000000000000000608482015260a4016104ae565b60408181015190517f23b872dd00000000000000000000000000000000000000000000000000000000815233600482015230602482015260448101919091527f00000000000000000000000000000000000000000000000000000000000000006001600160a01b0316906323b872dd906064016020604051808303816000875af11580156119e8573d6000803e3d6000fd5b505050506040513d601f19601f82011682018060405250810190611a0c9190613c46565b506008548151604051632142170760e11b81526001600160a01b039182166004820152306024820152604481018590529116906342842e0e90606401600060405180830381600087803b158015611a6257600080fd5b505af1158015611a76573d6000803e3d6000fd5b5050600b80546001818101835560008390527f0175b7a638427703f0dbe7bb9bbf987a2551717b34e79f33b5b1008d1fa01db99091018690559054611abe9350909150613bc5565b6000838152600e6020908152604080832093909355825160e08101845242815280820183815285516001600160a01b0390811683870152336060808501919091526080808901518316908501528701511660a08301528585015160c0830152868452600d9092529290912082518155905160018083018054909160ff1990911690836002811115611b5157611b51613b80565b0217905550604082810151600183810180547fffffffffffffffffffffff0000000000000000000000000000000000000000ff166101006001600160a01b0394851602179055606080860151600280870180546001600160a01b03199081169387169390931790556080808901516003808a01805486169289169290921790915560a0808b01516004808c0180548816928b169290921790915560c09b8c01516005909b019a909a5560008d8152600c60209081528a8220805488168155988901829055948801559086018054851690559490970180549092169091558786015188820151898401518a8801518851938816845233948401949094528288018c9052938201529190931694810194909452830152517f49cbf75a1a7fe14b3c89ebd4a77a8a203a6a7eba81fa25d978a23fb91a4e7848929181900390910190a150506001600055565b6009546001600160a01b03163314611d1a5760405162461bcd60e51b815260206004820152602860248201527f4d73672073656e64657220696e206e6f742061757468656e74696361746f722060448201527f636f6e747261637400000000000000000000000000000000000000000000000060648201526084016104ae565b6008546040516331a9108f60e11b81526004810186905233916001600160a01b031690636352211e90602401602060405180830381865afa158015611d63573d6000803e3d6000fd5b505050506040513d601f19601f82011682018060405250810190611d879190613d35565b6001600160a01b031614611ddd5760405162461bcd60e51b815260206004820152601c60248201527f546f6b656e206973206e6f74206f776e65642062792073656e6465720000000060448201526064016104ae565b6000848152600c60205260409020546001600160a01b031615611e425760405162461bcd60e51b815260206004820152601760248201527f546f6b656e20697320616c7265616479206c697374656400000000000000000060448201526064016104ae565b6001600160a01b038116611e985760405162461bcd60e51b815260206004820152601660248201527f42696f42616e6b2063616e6e6f74206265206e756c6c0000000000000000000060448201526064016104ae565b6008546040517fe985e9c50000000000000000000000000000000000000000000000000000000081523360048201523060248201526001600160a01b039091169063e985e9c590604401602060405180830381865afa158015611eff573d6000803e3d6000fd5b505050506040513d601f19601f82011682018060405250810190611f239190613c46565b1515600114611f9a5760405162461bcd60e51b815260206004820152603e60248201527f4d61726b6574706c61636520646f6573206e6f74206861766520617070726f7660448201527f616c2066726f6d206c6973746572206f6e204e465420636f6e7472616374000060648201526084016104ae565b60007f00000000000000000000000000000000000000000000000000000000000000006001600160a01b031663313ce5676040518163ffffffff1660e01b8152600401602060405180830381865afa158015611ffa573d6000803e3d6000fd5b505050506040513d601f19601f8201168201806040525081019061201e9190613d52565b61202990600a613e59565b61203585610578613cf4565b61203f9190613cf4565b6040805160a0810182523380825260208083018981528385018681526001600160a01b038a8116606087019081528a82166080880190815260008f8152600c90965294889020965187549083166001600160a01b0319918216178855935160018801559151600287015590516003860180549183169184169190911790559151600490940180549490921693169290921790915590519192507f95dff81097f9b51a680e9265a346738285100e6e1ef72ecf96dddcf9f555f6cd916121439190889088908690899089906001600160a01b0396871681526020810195909552604085019390935260608401919091528316608083015290911660a082015260c00190565b60405180910390a15050505050565b6007546001600160a01b031633146121ac5760405162461bcd60e51b815260206004820181905260248201527f4d73672073656e64657220696e206e6f7420636f6e7472616374206f776e657260448201526064016104ae565b6007546001600160a01b039081169082160361220a5760405162461bcd60e51b815260206004820152601c60248201527f4e6577206164647265737320697320616c7265616479206f776e65720000000060448201526064016104ae565b600780546001600160a01b038381166001600160a01b031983168117909355604080519190921680825260208201939093527f7699c77f2404f9b6bbd003861bb4af8ae70b205e19e73d7ec7fe4590db59a6b791015b60405180910390a15050565b6007546001600160a01b031633146122c65760405162461bcd60e51b815260206004820181905260248201527f4d73672073656e64657220696e206e6f7420636f6e7472616374206f776e657260448201526064016104ae565b6000828152600d60209081526040808320815160e08101909252805482526001810154919290919083019060ff16600281111561230557612305613b80565b600281111561231657612316613b80565b815260018201546001600160a01b03610100909104811660208301526002830154811660408301526003830154811660608084019190915260048401548216608084015260059093015460a09092019190915290820151919250166123bd5760405162461bcd60e51b815260206004820152601460248201527f42757965722063616e6e6f74206265206e756c6c00000000000000000000000060448201526064016104ae565b6003821061240d5760405162461bcd60e51b815260206004820152601460248201527f496e76616c69642073746174757320696e70757400000000000000000000000060448201526064016104ae565b8160000361243f576000838152600d6020526040812060019081018054909160ff1990911690835b0217905550505050565b81600103612467576000838152600d602052604090206001908101805460ff19168280612435565b8160020361248c576000838152600d60205260409020600101805460ff191660021790555b505050565b60008281526006602052604090205482906001600160a01b0316331461251f5760405162461bcd60e51b815260206004820152602860248201527f536f75726365206d75737420626520746865206f7261636c65206f662074686560448201527f207265717565737400000000000000000000000000000000000000000000000060648201526084016104ae565b60008181526006602052604080822080546001600160a01b03191690555182917f7cc135e0cebb02c3480ae5d74d377283180a2601f8f644edf7987b009316c63a91a2506000918252600f60209081526040808420546001600160a01b031684526010909152909120805460ff1916911515919091179055565b6000818152600d60209081526040808320815160e08101909252805482526001810154919290919083019060ff1660028111156125d8576125d8613b80565b60028111156125e9576125e9613b80565b815260018201546001600160a01b0361010090910481166020830152600280840154821660408401526003840154821660608401526004840154909116608083015260059092015460a0909101529091508160200151600281111561265057612650613b80565b146126c35760405162461bcd60e51b815260206004820152602860248201527f506879736963616c206974656d20686173206e6f74206265656e2064656c697660448201527f657265642079657400000000000000000000000000000000000000000000000060648201526084016104ae565b60c08101516040516370a0823160e01b81523060048201527f00000000000000000000000000000000000000000000000000000000000000006001600160a01b0316906370a0823190602401602060405180830381865afa15801561272c573d6000803e3d6000fd5b505050506040513d601f19601f820116820180604052508101906127509190613c2d565b101561279e5760405162461bcd60e51b815260206004820181905260248201527f436f6e747261637420555344432062616c616e636520697320746f6f206c6f7760448201526064016104ae565b6000600a548260c001516127b29190613d21565b90506000600a8360c001516127c79190613d21565b90507f00000000000000000000000000000000000000000000000000000000000000006001600160a01b031663a9059cbb846080015183856128099190613e68565b8660c001516128189190613bc5565b6040516001600160e01b031960e085901b1681526001600160a01b03909216600483015260248201526044016020604051808303816000875af1158015612863573d6000803e3d6000fd5b505050506040513d601f19601f820116820180604052508101906128879190613c46565b50604083810151905163a9059cbb60e01b81526001600160a01b039182166004820152602481018390527f00000000000000000000000000000000000000000000000000000000000000009091169063a9059cbb906044016020604051808303816000875af11580156128fe573d6000803e3d6000fd5b505050506040513d601f19601f820116820180604052508101906129229190613c46565b5060a083015160405163a9059cbb60e01b81526001600160a01b039182166004820152602481018490527f00000000000000000000000000000000000000000000000000000000000000009091169063a9059cbb906044016020604051808303816000875af1158015612999573d6000803e3d6000fd5b505050506040513d601f19601f820116820180604052508101906129bd9190613c46565b506008546060840151604051632142170760e11b81523060048201526001600160a01b039182166024820152604481018790529116906342842e0e90606401600060405180830381600087803b158015612a1657600080fd5b505af1158015612a2a573d6000803e3d6000fd5b5050506000858152600d6020908152604080832083815560018101805474ffffffffffffffffffffffffffffffffffffffffff191690556002810180546001600160a01b0319908116909155600382018054821690556004820180549091169055600501839055600e909152902054600b80549092508110612aae57612aae613b6a565b90600052602060002001600090557f27bcccc09913cc028e5370d11c2faf7238f7f1f3ca85be446b64fdde04be06f083608001518460600151868660a001518760c001518787604051612b4697969594939291906001600160a01b03978816815295871660208701526040860194909452919094166060840152608083019390935260a082019290925260c081019190915260e00190565b60405180910390a150505050565b6000818152600d60209081526040808320815160e08101909252805482526001810154919290919083019060ff166002811115612b9357612b93613b80565b6002811115612ba457612ba4613b80565b815260018201546001600160a01b0361010090910481166020830152600283015481166040830152600383015481166060830152600483015416608082015260059091015460a090910152805190915062278d0090612c039042613bc5565b1015612c675760405162461bcd60e51b815260206004820152602d60248201527f70726f766964656420746f6b656e496420686173206e6f74207375727061737360448201526c1959081d1a5b59481b1a5b5a5d609a1b60648201526084016104ae565b606081015160c082015160405163a9059cbb60e01b81526001600160a01b037f0000000000000000000000000000000000000000000000000000000000000000169263a9059cbb92612ccf926004016001600160a01b03929092168252602082015260400190565b6020604051808303816000875af1158015612cee573d6000803e3d6000fd5b505050506040513d601f19601f82011682018060405250810190612d129190613c46565b506008546040828101519051632142170760e11b81523060048201526001600160a01b039182166024820152604481018590529116906342842e0e90606401600060405180830381600087803b158015612d6b57600080fd5b505af1158015612d7f573d6000803e3d6000fd5b5050506000838152600d6020908152604080832083815560018101805474ffffffffffffffffffffffffffffffffffffffffff191690556002810180546001600160a01b0319908116909155600382018054821690556004820180549091169055600501839055600e909152902054600b80549092508110612e0357612e03613b6a565b90600052602060002001600090557fea05c9bb4e93f6d16336ec17cc9e7ce7adaa9e97a8b7fed7a18f0e06c670112882826060015183608001518460c0015160405161226094939291909384526001600160a01b03928316602085015291166040830152606082015260800190565b612eb06040805160a0810182526000808252602080830182905282840182905260608084018390528451808601909552845283015290608082015290565b612eee6040805160a0810182526000808252602080830182905282840182905260608084018390528451808601909552845283015290608082015290565b612efa81868686612f5e565b95945050505050565b6060612f196001600160a01b0383166014612fda565b92915050565b6080830151612f2e90836131bb565b608083015161248c90826131bb565b600454600090612f57906001600160a01b031684846131d2565b9392505050565b612f9c6040805160a0810182526000808252602080830182905282840182905260608084018390528451808601909552845283015290608082015290565b612fac8560800151610100613293565b50508284526001600160a01b03821660208501526001600160e01b031981166040850152835b949350505050565b60606000612fe9836002613cf4565b612ff4906002613e68565b67ffffffffffffffff81111561300c5761300c613a55565b6040519080825280601f01601f191660200182016040528015613036576020820181803683370190505b5090507f30000000000000000000000000000000000000000000000000000000000000008160008151811061306d5761306d613b6a565b60200101906001600160f81b031916908160001a9053507f7800000000000000000000000000000000000000000000000000000000000000816001815181106130b8576130b8613b6a565b60200101906001600160f81b031916908160001a90535060006130dc846002613cf4565b6130e7906001613e68565b90505b600181111561316c577f303132333435363738396162636465660000000000000000000000000000000085600f166010811061312857613128613b6a565b1a60f81b82828151811061313e5761313e613b6a565b60200101906001600160f81b031916908160001a90535060049490941c9361316581613e7b565b90506130ea565b508315612f575760405162461bcd60e51b815260206004820181905260248201527f537472696e67733a20686578206c656e67746820696e73756666696369656e7460448201526064016104ae565b6131c882600383516132f8565b61248c8282613407565b6005546000906131e3816001613e68565b600555835160408086015160808701515191516000937f4042994600000000000000000000000000000000000000000000000000000000936132349386938493923092918a91600191602401613e92565b60408051601f198184030181529190526020810180517bffffffffffffffffffffffffffffffffffffffffffffffffffffffff166001600160e01b03199093169290921790915290506132898683868461342e565b9695505050505050565b6040805180820190915260608152600060208201526132b3602083613ef6565b156132db576132c3602083613ef6565b6132ce906020613bc5565b6132d89083613e68565b91505b506020828101829052604080518085526000815290920101905290565b60178167ffffffffffffffff161161331d57610bc48360e0600585901b1683176135bf565b60ff8167ffffffffffffffff161161335b57613344836018611fe0600586901b16176135bf565b50610bc48367ffffffffffffffff831660016135e4565b61ffff8167ffffffffffffffff161161339a57613383836019611fe0600586901b16176135bf565b50610bc48367ffffffffffffffff831660026135e4565b63ffffffff8167ffffffffffffffff16116133db576133c483601a611fe0600586901b16176135bf565b50610bc48367ffffffffffffffff831660046135e4565b6133f083601b611fe0600586901b16176135bf565b50610bc48367ffffffffffffffff831660086135e4565b604080518082019091526060815260006020820152612f578384600001515184855161360a565b6040516bffffffffffffffffffffffff193060601b1660208201526034810184905260009060540160408051808303601f1901815282825280516020918201206000818152600690925291812080546001600160a01b0319166001600160a01b038a1617905590925082917fb5e6e01e79f91267dc17b4e6314d5d4d03593d2ceee0fbb452b750bd70ea5af99190a26003546040517f4000aea00000000000000000000000000000000000000000000000000000000081526001600160a01b0390911690634000aea09061350a90889087908790600401613f0a565b6020604051808303816000875af1158015613529573d6000803e3d6000fd5b505050506040513d601f19601f8201168201806040525081019061354d9190613c46565b612fd25760405162461bcd60e51b815260206004820152602360248201527f756e61626c6520746f207472616e73666572416e6443616c6c20746f206f726160448201527f636c65000000000000000000000000000000000000000000000000000000000060648201526084016104ae565b604080518082019091526060815260006020820152612f5783846000015151846136f4565b604080518082019091526060815260006020820152612fd284856000015151858561374f565b604080518082019091526060815260006020820152825182111561362d57600080fd5b602085015161363c8386613e68565b111561366f5761366f8561365f8760200151878661365a9190613e68565b6137d0565b61366a906002613cf4565b6137e7565b60008086518051876020830101935080888701111561368e5787860182525b505050602084015b602084106136ce57805182526136ad602083613e68565b91506136ba602082613e68565b90506136c7602085613bc5565b9350613696565b51815160001960208690036101000a019081169019919091161790525083949350505050565b6040805180820190915260608152600060208201528360200151831061372957613729848560200151600261366a9190613cf4565b8351805160208583010184815350808503613745576001810182525b5093949350505050565b60408051808201909152606081526000602082015260208501516137738584613e68565b1115613787576137878561365f8685613e68565b6000600161379784610100613f32565b6137a19190613bc5565b90508551838682010185831982511617815250805184870111156137c55783860181525b509495945050505050565b6000818311156137e1575081612f19565b50919050565b81516137f38383613293565b50610bc48382613407565b6000806040838503121561381157600080fd5b50508035926020909101359150565b6001600160a01b038116811461123857600080fd5b60008083601f84011261384757600080fd5b50813567ffffffffffffffff81111561385f57600080fd5b60208301915083602082850101111561109357600080fd5b60008060008060006080868803121561388f57600080fd5b853561389a81613820565b945060208601356138aa81613820565b935060408601359250606086013567ffffffffffffffff8111156138cd57600080fd5b6138d988828901613835565b969995985093965092949392505050565b6000602082840312156138fc57600080fd5b5035919050565b60006020828403121561391557600080fd5b8135612f5781613820565b6000806020838503121561393357600080fd5b823567ffffffffffffffff81111561394a57600080fd5b61395685828601613835565b90969095509350505050565b60005b8381101561397d578181015183820152602001613965565b50506000910152565b6000815180845261399e816020860160208601613962565b601f01601f19169290920160200192915050565b8215158152604060208201526000612fd26040830184613986565b600080600080608085870312156139e357600080fd5b843593506020850135925060408501356139fc81613820565b91506060850135613a0c81613820565b939692955090935050565b801515811461123857600080fd5b60008060408385031215613a3857600080fd5b823591506020830135613a4a81613a17565b809150509250929050565b634e487b7160e01b600052604160045260246000fd5b600082601f830112613a7c57600080fd5b8135602067ffffffffffffffff80831115613a9957613a99613a55565b8260051b604051601f19603f83011681018181108482111715613abe57613abe613a55565b604052938452858101830193838101925087851115613adc57600080fd5b83870191505b84821015613afb57813583529183019190830190613ae2565b979650505050505050565b60008060408385031215613b1957600080fd5b823567ffffffffffffffff80821115613b3157600080fd5b613b3d86838701613a6b565b93506020850135915080821115613b5357600080fd5b50613b6085828601613a6b565b9150509250929050565b634e487b7160e01b600052603260045260246000fd5b634e487b7160e01b600052602160045260246000fd5b634e487b7160e01b600052601160045260246000fd5b600060018201613bbe57613bbe613b96565b5060010190565b81810381811115612f1957612f19613b96565b600081518084526020808501945080840160005b838110156137c557815187529582019590820190600101613bec565b604081526000613c1b6040830185613bd8565b8281036020840152612efa8185613bd8565b600060208284031215613c3f57600080fd5b5051919050565b600060208284031215613c5857600080fd5b8151612f5781613a17565b7f68747470733a2f2f616d696e6f2d636861696e2d646f63746f72732d7265676981527f737472792e6865726f6b756170702e636f6d2f69732d69742d646f63746f722d60208201527f77616c6c65742f00000000000000000000000000000000000000000000000000604082015260008251613ce7816047850160208701613962565b9190910160470192915050565b8082028115828204841417612f1957612f19613b96565b634e487b7160e01b600052601260045260246000fd5b600082613d3057613d30613d0b565b500490565b600060208284031215613d4757600080fd5b8151612f5781613820565b600060208284031215613d6457600080fd5b815160ff81168114612f5757600080fd5b600181815b80851115613db0578160001904821115613d9657613d96613b96565b80851615613da357918102915b93841c9390800290613d7a565b509250929050565b600082613dc757506001612f19565b81613dd457506000612f19565b8160018114613dea5760028114613df457613e10565b6001915050612f19565b60ff841115613e0557613e05613b96565b50506001821b612f19565b5060208310610133831016604e8410600b8410161715613e33575081810a612f19565b613e3d8383613d75565b8060001904821115613e5157613e51613b96565b029392505050565b6000612f5760ff841683613db8565b80820180821115612f1957612f19613b96565b600081613e8a57613e8a613b96565b506000190190565b60006101006001600160a01b03808c1684528a60208501528960408501528089166060850152506001600160e01b0319871660808401528560a08401528460c08401528060e0840152613ee781840185613986565b9b9a5050505050505050505050565b600082613f0557613f05613d0b565b500690565b6001600160a01b0384168152826020820152606060408201526000612efa6060830184613986565b6000612f578383613db856fea2646970667358221220edf4a41ef3bba35dfacab3285b7ce4b9156c41ed67c886179cff41b2f1417cd564736f6c63430008110033",
  "linkReferences": {},
  "deployedLinkReferences": {}
}