{
  "_format": "hh-sol-artifact-1",
  "contractName": "AminoChainAuthenticator",
  "sourceName": "contracts/AminoChainAuthenticator.sol",
  "abi": [
    {
      "inputs": [
        {
          "internalType": "address",
          "name": "nftAddress",
          "type": "address"
        },
        {
          "internalType": "address",
          "name": "marketplaceAddress",
          "type": "address"
        },
        {
          "internalType": "address",
          "name": "usdcAddress",
          "type": "address"
        }
      ],
      "stateMutability": "nonpayable",
      "type": "constructor"
    },
    {
      "anonymous": false,
      "inputs": [
        {
          "indexed": true,
          "internalType": "address",
          "name": "previousOwner",
          "type": "address"
        },
        {
          "indexed": true,
          "internalType": "address",
          "name": "newOwner",
          "type": "address"
        }
      ],
      "name": "OwnershipTransferred",
      "type": "event"
    },
    {
      "anonymous": false,
      "inputs": [
        {
          "indexed": false,
          "internalType": "address",
          "name": "donor",
          "type": "address"
        },
        {
          "indexed": false,
          "internalType": "address",
          "name": "biobank",
          "type": "address"
        },
        {
          "indexed": false,
          "internalType": "uint256[]",
          "name": "tokenIds",
          "type": "uint256[]"
        },
        {
          "indexed": false,
          "internalType": "uint256[]",
          "name": "amounts",
          "type": "uint256[]"
        }
      ],
      "name": "UserRegistered",
      "type": "event"
    },
    {
      "inputs": [
        {
          "internalType": "address",
          "name": "donor",
          "type": "address"
        },
        {
          "internalType": "bytes32",
          "name": "biodataHash",
          "type": "bytes32"
        }
      ],
      "name": "getRegistrationHash",
      "outputs": [
        {
          "internalType": "bytes32",
          "name": "",
          "type": "bytes32"
        }
      ],
      "stateMutability": "pure",
      "type": "function"
    },
    {
      "inputs": [
        {
          "internalType": "address",
          "name": "donor",
          "type": "address"
        }
      ],
      "name": "isRegistered",
      "outputs": [
        {
          "internalType": "bool",
          "name": "",
          "type": "bool"
        }
      ],
      "stateMutability": "view",
      "type": "function"
    },
    {
      "inputs": [],
      "name": "marketplace",
      "outputs": [
        {
          "internalType": "contract IAminoChainMarketplace",
          "name": "",
          "type": "address"
        }
      ],
      "stateMutability": "view",
      "type": "function"
    },
    {
      "inputs": [],
      "name": "nft",
      "outputs": [
        {
          "internalType": "contract IAminoChainDonation",
          "name": "",
          "type": "address"
        }
      ],
      "stateMutability": "view",
      "type": "function"
    },
    {
      "inputs": [
        {
          "internalType": "address",
          "name": "",
          "type": "address"
        },
        {
          "internalType": "address",
          "name": "",
          "type": "address"
        },
        {
          "internalType": "uint256",
          "name": "",
          "type": "uint256"
        },
        {
          "internalType": "bytes",
          "name": "",
          "type": "bytes"
        }
      ],
      "name": "onERC721Received",
      "outputs": [
        {
          "internalType": "bytes4",
          "name": "",
          "type": "bytes4"
        }
      ],
      "stateMutability": "pure",
      "type": "function"
    },
    {
      "inputs": [],
      "name": "owner",
      "outputs": [
        {
          "internalType": "address",
          "name": "",
          "type": "address"
        }
      ],
      "stateMutability": "view",
      "type": "function"
    },
    {
      "inputs": [
        {
          "components": [
            {
              "components": [
                {
                  "internalType": "bytes32",
                  "name": "A",
                  "type": "bytes32"
                },
                {
                  "internalType": "bytes32",
                  "name": "B",
                  "type": "bytes32"
                },
                {
                  "internalType": "bytes32",
                  "name": "C",
                  "type": "bytes32"
                },
                {
                  "internalType": "bytes32",
                  "name": "DPB",
                  "type": "bytes32"
                },
                {
                  "internalType": "bytes32",
                  "name": "DRB",
                  "type": "bytes32"
                }
              ],
              "internalType": "struct AminoChainLibrary.HlaHashed",
              "name": "hlaHashed",
              "type": "tuple"
            },
            {
              "internalType": "bytes32",
              "name": "hlaHash",
              "type": "bytes32"
            },
            {
              "internalType": "bytes",
              "name": "hlaEncoded",
              "type": "bytes"
            },
            {
              "internalType": "string",
              "name": "genomeEncodedIpfsId",
              "type": "string"
            },
            {
              "internalType": "uint256[]",
              "name": "amounts",
              "type": "uint256[]"
            },
            {
              "internalType": "address",
              "name": "donor",
              "type": "address"
            },
            {
              "internalType": "address",
              "name": "biobank",
              "type": "address"
            }
          ],
          "internalType": "struct AminoChainLibrary.RegistrationData",
          "name": "data",
          "type": "tuple"
        }
      ],
      "name": "register",
      "outputs": [],
      "stateMutability": "nonpayable",
      "type": "function"
    },
    {
      "inputs": [],
      "name": "renounceOwnership",
      "outputs": [],
      "stateMutability": "nonpayable",
      "type": "function"
    },
    {
      "inputs": [
        {
          "internalType": "address",
          "name": "newOwner",
          "type": "address"
        }
      ],
      "name": "transferOwnership",
      "outputs": [],
      "stateMutability": "nonpayable",
      "type": "function"
    },
    {
      "inputs": [],
      "name": "usdc",
      "outputs": [
        {
          "internalType": "contract IERC20",
          "name": "",
          "type": "address"
        }
      ],
      "stateMutability": "view",
      "type": "function"
    }
  ],
  "bytecode": "0x60e060405234801561001057600080fd5b506040516108ac3803806108ac83398101604081905261002f91610124565b610038336100b8565b6001600160a01b03838116608081905260405163a22cb46560e01b81529184166004830152600160248301529063a22cb46590604401600060405180830381600087803b15801561008857600080fd5b505af115801561009c573d6000803e3d6000fd5b5050506001600160a01b0392831660a052501660c05250610167565b600080546001600160a01b038381166001600160a01b0319831681178455604051919092169283917f8be0079c531659141344cd1fd0a4f28419497f9722a3daafe3b4186f6b6457e09190a35050565b80516001600160a01b038116811461011f57600080fd5b919050565b60008060006060848603121561013957600080fd5b61014284610108565b925061015060208501610108565b915061015e60408501610108565b90509250925092565b60805160a05160c05161070f61019d60003960006101360152600061022d01526000818161017501526102df015261070f6000f3fe608060405234801561001057600080fd5b50600436106100be5760003560e01c8063715018a611610076578063abc8c7af1161005b578063abc8c7af14610228578063c3c5a5471461024f578063f2fde38b1461027257600080fd5b8063715018a61461020f5780638da5cb5b1461021757600080fd5b806347ccca02116100a757806347ccca02146101705780634d0a087e1461019757806361c08575146101fa57600080fd5b8063150b7a02146100c35780633e413bee14610131575b600080fd5b6100fb6100d13660046104c9565b7f150b7a020000000000000000000000000000000000000000000000000000000095945050505050565b6040517fffffffff0000000000000000000000000000000000000000000000000000000090911681526020015b60405180910390f35b6101587f000000000000000000000000000000000000000000000000000000000000000081565b6040516001600160a01b039091168152602001610128565b6101587f000000000000000000000000000000000000000000000000000000000000000081565b6101ec6101a5366004610564565b6040516bffffffffffffffffffffffff19606084901b1660208201526034810182905260009060540160405160208183030381529060405280519060200120905092915050565b604051908152602001610128565b61020d61020836600461058e565b610285565b005b61020d610290565b6000546001600160a01b0316610158565b6101587f000000000000000000000000000000000000000000000000000000000000000081565b61026261025d3660046105d1565b6102a4565b6040519015158152602001610128565b61020d6102803660046105d1565b610359565b61028d6103eb565b50565b6102986103eb565b6102a26000610445565b565b6040517f1881eeb40000000000000000000000000000000000000000000000000000000081526001600160a01b0382811660048301526000917f000000000000000000000000000000000000000000000000000000000000000090911690631881eeb490602401600060405180830381865afa158015610328573d6000803e3d6000fd5b505050506040513d6000823e601f3d908101601f19168201604052610350919081019061061b565b51151592915050565b6103616103eb565b6001600160a01b0381166103e25760405162461bcd60e51b815260206004820152602660248201527f4f776e61626c653a206e6577206f776e657220697320746865207a65726f206160448201527f646472657373000000000000000000000000000000000000000000000000000060648201526084015b60405180910390fd5b61028d81610445565b6000546001600160a01b031633146102a25760405162461bcd60e51b815260206004820181905260248201527f4f776e61626c653a2063616c6c6572206973206e6f7420746865206f776e657260448201526064016103d9565b600080546001600160a01b038381167fffffffffffffffffffffffff0000000000000000000000000000000000000000831681178455604051919092169283917f8be0079c531659141344cd1fd0a4f28419497f9722a3daafe3b4186f6b6457e09190a35050565b80356001600160a01b03811681146104c457600080fd5b919050565b6000806000806000608086880312156104e157600080fd5b6104ea866104ad565b94506104f8602087016104ad565b935060408601359250606086013567ffffffffffffffff8082111561051c57600080fd5b818801915088601f83011261053057600080fd5b81358181111561053f57600080fd5b89602082850101111561055157600080fd5b9699959850939650602001949392505050565b6000806040838503121561057757600080fd5b610580836104ad565b946020939093013593505050565b6000602082840312156105a057600080fd5b813567ffffffffffffffff8111156105b757600080fd5b820161016081850312156105ca57600080fd5b9392505050565b6000602082840312156105e357600080fd5b6105ca826104ad565b7f4e487b7100000000000000000000000000000000000000000000000000000000600052604160045260246000fd5b6000602080838503121561062e57600080fd5b825167ffffffffffffffff8082111561064657600080fd5b818501915085601f83011261065a57600080fd5b81518181111561066c5761066c6105ec565b8060051b604051601f19603f83011681018181108582111715610691576106916105ec565b6040529182528482019250838101850191888311156106af57600080fd5b938501935b828510156106cd578451845293850193928501926106b4565b9897505050505050505056fea264697066735822122018db90c00ed9c8d938a5c962977e15d3fa1c876a03e49449a2572d73933b5c2d64736f6c63430008110033",
  "linkReferences": {},
  "deployedLinkReferences": {}
}