{
  "_format": "hh-sol-artifact-1",
  "contractName": "AminoChainAuthenticator",
  "sourceName": "contracts/AminoChainAuthenticator.sol",
  "abi": [
    {
      "inputs": [
        {
          "internalType": "address",
          "name": "nftAddress",
          "type": "address"
        },
        {
          "internalType": "address",
          "name": "marketplaceAddress",
          "type": "address"
        },
        {
          "internalType": "address",
          "name": "usdcAddress",
          "type": "address"
        }
      ],
      "stateMutability": "nonpayable",
      "type": "constructor"
    },
    {
      "anonymous": false,
      "inputs": [
        {
          "indexed": true,
          "internalType": "address",
          "name": "donor",
          "type": "address"
        },
        {
          "indexed": true,
          "internalType": "address",
          "name": "biobank",
          "type": "address"
        },
        {
          "indexed": true,
          "internalType": "uint256[]",
          "name": "tokenIds",
          "type": "uint256[]"
        },
        {
          "indexed": false,
          "internalType": "uint256[]",
          "name": "amounts",
          "type": "uint256[]"
        }
      ],
      "name": "UserRegistered",
      "type": "event"
    },
    {
      "inputs": [
        {
          "internalType": "bytes32",
          "name": "",
          "type": "bytes32"
        }
      ],
      "name": "bioDataEncoded",
      "outputs": [
        {
          "internalType": "bytes",
          "name": "",
          "type": "bytes"
        }
      ],
      "stateMutability": "view",
      "type": "function"
    },
    {
      "inputs": [
        {
          "internalType": "string",
          "name": "A",
          "type": "string"
        },
        {
          "internalType": "string",
          "name": "B",
          "type": "string"
        },
        {
          "internalType": "string",
          "name": "C",
          "type": "string"
        },
        {
          "internalType": "string",
          "name": "DPB",
          "type": "string"
        },
        {
          "internalType": "string",
          "name": "DRB",
          "type": "string"
        }
      ],
      "name": "getBioDataHash",
      "outputs": [
        {
          "internalType": "bytes32",
          "name": "",
          "type": "bytes32"
        }
      ],
      "stateMutability": "pure",
      "type": "function"
    },
    {
      "inputs": [
        {
          "internalType": "address",
          "name": "donor",
          "type": "address"
        },
        {
          "internalType": "bytes32",
          "name": "biodataHash",
          "type": "bytes32"
        }
      ],
      "name": "getRegistrationHash",
      "outputs": [
        {
          "internalType": "bytes32",
          "name": "",
          "type": "bytes32"
        }
      ],
      "stateMutability": "pure",
      "type": "function"
    },
    {
      "inputs": [
        {
          "internalType": "string",
          "name": "str",
          "type": "string"
        }
      ],
      "name": "hash",
      "outputs": [
        {
          "internalType": "bytes32",
          "name": "",
          "type": "bytes32"
        }
      ],
      "stateMutability": "pure",
      "type": "function"
    },
    {
      "inputs": [
        {
          "internalType": "address",
          "name": "donor",
          "type": "address"
        }
      ],
      "name": "isRegistered",
      "outputs": [
        {
          "internalType": "bool",
          "name": "",
          "type": "bool"
        }
      ],
      "stateMutability": "view",
      "type": "function"
    },
    {
      "inputs": [
        {
          "internalType": "address",
          "name": "",
          "type": "address"
        },
        {
          "internalType": "address",
          "name": "",
          "type": "address"
        },
        {
          "internalType": "uint256",
          "name": "",
          "type": "uint256"
        },
        {
          "internalType": "bytes",
          "name": "",
          "type": "bytes"
        }
      ],
      "name": "onERC721Received",
      "outputs": [
        {
          "internalType": "bytes4",
          "name": "",
          "type": "bytes4"
        }
      ],
      "stateMutability": "pure",
      "type": "function"
    },
    {
      "inputs": [
        {
          "components": [
            {
              "internalType": "bytes32",
              "name": "A",
              "type": "bytes32"
            },
            {
              "internalType": "bytes32",
              "name": "B",
              "type": "bytes32"
            },
            {
              "internalType": "bytes32",
              "name": "C",
              "type": "bytes32"
            },
            {
              "internalType": "bytes32",
              "name": "DPB",
              "type": "bytes32"
            },
            {
              "internalType": "bytes32",
              "name": "DRB",
              "type": "bytes32"
            }
          ],
          "internalType": "struct AminoChainLibrary.BioData",
          "name": "bioData",
          "type": "tuple"
        },
        {
          "internalType": "bytes32",
          "name": "biodataHash",
          "type": "bytes32"
        },
        {
          "internalType": "bytes",
          "name": "biodataEncoded",
          "type": "bytes"
        },
        {
          "internalType": "uint256[]",
          "name": "amounts",
          "type": "uint256[]"
        },
        {
          "internalType": "address",
          "name": "donor",
          "type": "address"
        },
        {
          "internalType": "bytes",
          "name": "signature",
          "type": "bytes"
        },
        {
          "internalType": "address",
          "name": "biobank",
          "type": "address"
        }
      ],
      "name": "register",
      "outputs": [],
      "stateMutability": "nonpayable",
      "type": "function"
    }
  ],
  "bytecode": "0x60e060405234801561001057600080fd5b506040516200121738038062001217833981016040819052610031916100cd565b6001600160a01b03838116608081905260405163a22cb46560e01b81529184166004830152600160248301529063a22cb46590604401600060405180830381600087803b15801561008157600080fd5b505af1158015610095573d6000803e3d6000fd5b5050506001600160a01b0392831660a052501660c05250610110565b80516001600160a01b03811681146100c857600080fd5b919050565b6000806000606084860312156100e257600080fd5b6100eb846100b1565b92506100f9602085016100b1565b9150610107604085016100b1565b90509250925092565b60805160a05160c0516110d662000141600039600050506000505060008181610342015261049c01526110d66000f3fe608060405234801561001057600080fd5b506004361061007d5760003560e01c80637bc9bbcb1161005b5780637bc9bbcb14610124578063b411ee9414610139578063c3c5a5471461014c578063fa360dad1461016f57600080fd5b8063150b7a021461008257806329784cbe146100f05780634d0a087e14610111575b600080fd5b6100ba61009036600461091d565b7f150b7a020000000000000000000000000000000000000000000000000000000095945050505050565b6040517fffffffff0000000000000000000000000000000000000000000000000000000090911681526020015b60405180910390f35b6101036100fe36600461098c565b61018f565b6040519081526020016100e7565b61010361011f366004610a7d565b6101da565b610137610132366004610ba3565b610222565b005b610103610147366004610c7b565b61044c565b61015f61015a366004610cbd565b610461565b60405190151581526020016100e7565b61018261017d366004610cdf565b610516565b6040516100e79190610cf8565b60008a8a8a8a8a8a8a8a8a8a6040516020016101b49a99989796959493929190610d46565b6040516020818303038152906040528051906020012090509a9950505050505050505050565b6040516bffffffffffffffffffffffff19606084901b166020820152603481018290526000906054015b60405160208183030381529060405280519060200120905092915050565b600061022e84896101da565b90506000610289826040517f19457468657265756d205369676e6564204d6573736167653a0a3332000000006020820152603c8101829052600090605c01604051602081830303815290604052805190602001209050919050565b9050600061029782866105b0565b9050856001600160a01b0316816001600160a01b0316146103255760405162461bcd60e51b815260206004820152602260248201527f5369676e617475726520646f6573206e6f7420636f6d652066726f6d20646f6e60448201527f6f7200000000000000000000000000000000000000000000000000000000000060648201526084015b60405180910390fd5b60008a815260208190526040902061033d8a82610e1b565b5060007f00000000000000000000000000000000000000000000000000000000000000006001600160a01b031663a834cad5888e8c8c6040518563ffffffff1660e01b81526004016103929493929190610f26565b6000604051808303816000875af11580156103b1573d6000803e3d6000fd5b505050506040513d6000823e601f3d908101601f191682016040526103d99190810190610f82565b9050806040516103e99190611028565b6040518091039020856001600160a01b0316886001600160a01b03167fbb689ea3bd48b2b77719d5866875756a883309b1b11a5eaa68069416e34c6a738c8c60405161043692919061105e565b60405180910390a4505050505050505050505050565b6000828260405160200161020492919061107a565b6040517f1881eeb40000000000000000000000000000000000000000000000000000000081526001600160a01b0382811660048301526000917f000000000000000000000000000000000000000000000000000000000000000090911690631881eeb490602401600060405180830381865afa1580156104e5573d6000803e3d6000fd5b505050506040513d6000823e601f3d908101601f1916820160405261050d9190810190610f82565b51151592915050565b6000602081905290815260409020805461052f90610d92565b80601f016020809104026020016040519081016040528092919081815260200182805461055b90610d92565b80156105a85780601f1061057d576101008083540402835291602001916105a8565b820191906000526020600020905b81548152906001019060200180831161058b57829003601f168201915b505050505081565b60008060006105bf85856105d4565b915091506105cc81610619565b509392505050565b600080825160410361060a5760208301516040840151606085015160001a6105fe878285856107d2565b94509450505050610612565b506000905060025b9250929050565b600081600481111561062d5761062d61108a565b036106355750565b60018160048111156106495761064961108a565b036106965760405162461bcd60e51b815260206004820152601860248201527f45434453413a20696e76616c6964207369676e61747572650000000000000000604482015260640161031c565b60028160048111156106aa576106aa61108a565b036106f75760405162461bcd60e51b815260206004820152601f60248201527f45434453413a20696e76616c6964207369676e6174757265206c656e67746800604482015260640161031c565b600381600481111561070b5761070b61108a565b036107635760405162461bcd60e51b815260206004820152602260248201527f45434453413a20696e76616c6964207369676e6174757265202773272076616c604482015261756560f01b606482015260840161031c565b60048160048111156107775761077761108a565b036107cf5760405162461bcd60e51b815260206004820152602260248201527f45434453413a20696e76616c6964207369676e6174757265202776272076616c604482015261756560f01b606482015260840161031c565b50565b6000807f7fffffffffffffffffffffffffffffff5d576e7357a4501ddfe92f46681b20a083111561080957506000905060036108b6565b8460ff16601b1415801561082157508460ff16601c14155b1561083257506000905060046108b6565b6040805160008082526020820180845289905260ff881692820192909252606081018690526080810185905260019060a0016020604051602081039080840390855afa158015610886573d6000803e3d6000fd5b5050604051601f1901519150506001600160a01b0381166108af576000600192509250506108b6565b9150600090505b94509492505050565b80356001600160a01b03811681146108d657600080fd5b919050565b60008083601f8401126108ed57600080fd5b50813567ffffffffffffffff81111561090557600080fd5b60208301915083602082850101111561061257600080fd5b60008060008060006080868803121561093557600080fd5b61093e866108bf565b945061094c602087016108bf565b935060408601359250606086013567ffffffffffffffff81111561096f57600080fd5b61097b888289016108db565b969995985093965092949392505050565b60008060008060008060008060008060a08b8d0312156109ab57600080fd5b8a3567ffffffffffffffff808211156109c357600080fd5b6109cf8e838f016108db565b909c509a5060208d01359150808211156109e857600080fd5b6109f48e838f016108db565b909a50985060408d0135915080821115610a0d57600080fd5b610a198e838f016108db565b909850965060608d0135915080821115610a3257600080fd5b610a3e8e838f016108db565b909650945060808d0135915080821115610a5757600080fd5b50610a648d828e016108db565b915080935050809150509295989b9194979a5092959850565b60008060408385031215610a9057600080fd5b610a99836108bf565b946020939093013593505050565b634e487b7160e01b600052604160045260246000fd5b604051601f8201601f1916810167ffffffffffffffff81118282101715610ae657610ae6610aa7565b604052919050565b600082601f830112610aff57600080fd5b813567ffffffffffffffff811115610b1957610b19610aa7565b610b2c601f8201601f1916602001610abd565b818152846020838601011115610b4157600080fd5b816020850160208301376000918101602001919091529392505050565b60008083601f840112610b7057600080fd5b50813567ffffffffffffffff811115610b8857600080fd5b6020830191508360208260051b850101111561061257600080fd5b600080600080600080600080888a03610160811215610bc157600080fd5b60a0811215610bcf57600080fd5b5088975060a0890135965060c089013567ffffffffffffffff80821115610bf557600080fd5b610c018c838d01610aee565b975060e08b0135915080821115610c1757600080fd5b610c238c838d01610b5e565b9097509550859150610c386101008c016108bf565b94506101208b0135915080821115610c4f57600080fd5b50610c5c8b828c01610aee565b925050610c6c6101408a016108bf565b90509295985092959890939650565b60008060208385031215610c8e57600080fd5b823567ffffffffffffffff811115610ca557600080fd5b610cb1858286016108db565b90969095509350505050565b600060208284031215610ccf57600080fd5b610cd8826108bf565b9392505050565b600060208284031215610cf157600080fd5b5035919050565b600060208083528351808285015260005b81811015610d2557858101830151858201604001528201610d09565b506000604082860101526040601f19601f8301168501019250505092915050565b898b823760008a820160008152898b82376000908a01908152878982376000908801908152858782376000908601908152838582376000930192835250909a9950505050505050505050565b600181811c90821680610da657607f821691505b602082108103610dc657634e487b7160e01b600052602260045260246000fd5b50919050565b601f821115610e1657600081815260208120601f850160051c81016020861015610df35750805b601f850160051c820191505b81811015610e1257828155600101610dff565b5050505b505050565b815167ffffffffffffffff811115610e3557610e35610aa7565b610e4981610e438454610d92565b84610dcc565b602080601f831160018114610e7e5760008415610e665750858301515b600019600386901b1c1916600185901b178555610e12565b600085815260208120601f198616915b82811015610ead57888601518255948401946001909101908401610e8e565b5085821015610ecb5787850151600019600388901b60f8161c191681555b5050505050600190811b01905550565b81835260007f07ffffffffffffffffffffffffffffffffffffffffffffffffffffffffffffff831115610f0d57600080fd5b8260051b80836020870137939093016020019392505050565b6001600160a01b038516815283356020820152602084013560408201526040840135606082015260608401356080820152608084013560a082015260e060c08201526000610f7860e083018486610edb565b9695505050505050565b60006020808385031215610f9557600080fd5b825167ffffffffffffffff80821115610fad57600080fd5b818501915085601f830112610fc157600080fd5b815181811115610fd357610fd3610aa7565b8060051b9150610fe4848301610abd565b8181529183018401918481019088841115610ffe57600080fd5b938501935b8385101561101c57845182529385019390850190611003565b98975050505050505050565b815160009082906020808601845b8381101561105257815185529382019390820190600101611036565b50929695505050505050565b602081526000611072602083018486610edb565b949350505050565b8183823760009101908152919050565b634e487b7160e01b600052602160045260246000fdfea2646970667358221220089e8ec7e6d3a3d7685301856057fa5c0eab8214c05e1123549f356801bfd65164736f6c63430008110033",
  "linkReferences": {},
  "deployedLinkReferences": {}
}