{
  "_format": "hh-sol-artifact-1",
  "contractName": "AminoChainDonation",
  "sourceName": "contracts/AminoChainDonation.sol",
  "abi": [
    {
      "inputs": [
        {
          "internalType": "string",
          "name": "name",
          "type": "string"
        },
        {
          "internalType": "string",
          "name": "symbol",
          "type": "string"
        }
      ],
      "stateMutability": "nonpayable",
      "type": "constructor"
    },
    {
      "anonymous": false,
      "inputs": [
        {
          "indexed": true,
          "internalType": "address",
          "name": "owner",
          "type": "address"
        },
        {
          "indexed": true,
          "internalType": "address",
          "name": "approved",
          "type": "address"
        },
        {
          "indexed": true,
          "internalType": "uint256",
          "name": "tokenId",
          "type": "uint256"
        }
      ],
      "name": "Approval",
      "type": "event"
    },
    {
      "anonymous": false,
      "inputs": [
        {
          "indexed": true,
          "internalType": "address",
          "name": "owner",
          "type": "address"
        },
        {
          "indexed": true,
          "internalType": "address",
          "name": "operator",
          "type": "address"
        },
        {
          "indexed": false,
          "internalType": "bool",
          "name": "approved",
          "type": "bool"
        }
      ],
      "name": "ApprovalForAll",
      "type": "event"
    },
    {
      "anonymous": false,
      "inputs": [
        {
          "indexed": false,
          "internalType": "address",
          "name": "donor",
          "type": "address"
        },
        {
          "components": [
            {
              "internalType": "bytes32",
              "name": "A",
              "type": "bytes32"
            },
            {
              "internalType": "bytes32",
              "name": "B",
              "type": "bytes32"
            },
            {
              "internalType": "bytes32",
              "name": "C",
              "type": "bytes32"
            },
            {
              "internalType": "bytes32",
              "name": "DPB",
              "type": "bytes32"
            },
            {
              "internalType": "bytes32",
              "name": "DRB",
              "type": "bytes32"
            }
          ],
          "indexed": false,
          "internalType": "struct AminoChainLibrary.HlaHashed",
          "name": "hlaHashed",
          "type": "tuple"
        },
        {
          "indexed": false,
          "internalType": "uint256[]",
          "name": "tokenIds",
          "type": "uint256[]"
        },
        {
          "indexed": false,
          "internalType": "uint256[]",
          "name": "amounts",
          "type": "uint256[]"
        }
      ],
      "name": "NFTMinted",
      "type": "event"
    },
    {
      "anonymous": false,
      "inputs": [
        {
          "indexed": true,
          "internalType": "address",
          "name": "previousOwner",
          "type": "address"
        },
        {
          "indexed": true,
          "internalType": "address",
          "name": "newOwner",
          "type": "address"
        }
      ],
      "name": "OwnershipTransferred",
      "type": "event"
    },
    {
      "anonymous": false,
      "inputs": [
        {
          "indexed": false,
          "internalType": "address",
          "name": "account",
          "type": "address"
        }
      ],
      "name": "Paused",
      "type": "event"
    },
    {
      "anonymous": false,
      "inputs": [
        {
          "indexed": true,
          "internalType": "address",
          "name": "from",
          "type": "address"
        },
        {
          "indexed": true,
          "internalType": "address",
          "name": "to",
          "type": "address"
        },
        {
          "indexed": true,
          "internalType": "uint256",
          "name": "tokenId",
          "type": "uint256"
        }
      ],
      "name": "Transfer",
      "type": "event"
    },
    {
      "anonymous": false,
      "inputs": [
        {
          "indexed": false,
          "internalType": "address",
          "name": "account",
          "type": "address"
        }
      ],
      "name": "Unpaused",
      "type": "event"
    },
    {
      "inputs": [
        {
          "internalType": "address",
          "name": "",
          "type": "address"
        },
        {
          "internalType": "uint256",
          "name": "",
          "type": "uint256"
        }
      ],
      "name": "addressToTokenIds",
      "outputs": [
        {
          "internalType": "uint256",
          "name": "",
          "type": "uint256"
        }
      ],
      "stateMutability": "view",
      "type": "function"
    },
    {
      "inputs": [
        {
          "internalType": "address",
          "name": "to",
          "type": "address"
        },
        {
          "internalType": "uint256",
          "name": "tokenId",
          "type": "uint256"
        }
      ],
      "name": "approve",
      "outputs": [],
      "stateMutability": "nonpayable",
      "type": "function"
    },
    {
      "inputs": [
        {
          "internalType": "address",
          "name": "owner",
          "type": "address"
        }
      ],
      "name": "balanceOf",
      "outputs": [
        {
          "internalType": "uint256",
          "name": "",
          "type": "uint256"
        }
      ],
      "stateMutability": "view",
      "type": "function"
    },
    {
      "inputs": [
        {
          "internalType": "uint256",
          "name": "tokenId",
          "type": "uint256"
        }
      ],
      "name": "getApproved",
      "outputs": [
        {
          "internalType": "address",
          "name": "",
          "type": "address"
        }
      ],
      "stateMutability": "view",
      "type": "function"
    },
    {
      "inputs": [
        {
          "internalType": "uint256",
          "name": "tokenId",
          "type": "uint256"
        }
      ],
      "name": "getGenomeEncodedUrl",
      "outputs": [
        {
          "internalType": "string",
          "name": "",
          "type": "string"
        }
      ],
      "stateMutability": "view",
      "type": "function"
    },
    {
      "inputs": [
        {
          "internalType": "uint256",
          "name": "tokenId",
          "type": "uint256"
        }
      ],
      "name": "getHlaEncoded",
      "outputs": [
        {
          "internalType": "bytes",
          "name": "",
          "type": "bytes"
        }
      ],
      "stateMutability": "view",
      "type": "function"
    },
    {
      "inputs": [
        {
          "internalType": "uint256",
          "name": "tokenId",
          "type": "uint256"
        }
      ],
      "name": "getHlaHashed",
      "outputs": [
        {
          "components": [
            {
              "internalType": "bytes32",
              "name": "A",
              "type": "bytes32"
            },
            {
              "internalType": "bytes32",
              "name": "B",
              "type": "bytes32"
            },
            {
              "internalType": "bytes32",
              "name": "C",
              "type": "bytes32"
            },
            {
              "internalType": "bytes32",
              "name": "DPB",
              "type": "bytes32"
            },
            {
              "internalType": "bytes32",
              "name": "DRB",
              "type": "bytes32"
            }
          ],
          "internalType": "struct AminoChainLibrary.HlaHashed",
          "name": "",
          "type": "tuple"
        }
      ],
      "stateMutability": "view",
      "type": "function"
    },
    {
      "inputs": [
        {
          "internalType": "address",
          "name": "donor",
          "type": "address"
        }
      ],
      "name": "getTokenIdsByDonor",
      "outputs": [
        {
          "internalType": "uint256[]",
          "name": "",
          "type": "uint256[]"
        }
      ],
      "stateMutability": "view",
      "type": "function"
    },
    {
      "inputs": [
        {
          "internalType": "bytes32",
          "name": "",
          "type": "bytes32"
        }
      ],
      "name": "hlaHashToHlaEncoded",
      "outputs": [
        {
          "internalType": "bytes",
          "name": "",
          "type": "bytes"
        }
      ],
      "stateMutability": "view",
      "type": "function"
    },
    {
      "inputs": [
        {
          "internalType": "address",
          "name": "owner",
          "type": "address"
        },
        {
          "internalType": "address",
          "name": "operator",
          "type": "address"
        }
      ],
      "name": "isApprovedForAll",
      "outputs": [
        {
          "internalType": "bool",
          "name": "",
          "type": "bool"
        }
      ],
      "stateMutability": "view",
      "type": "function"
    },
    {
      "inputs": [
        {
          "components": [
            {
              "components": [
                {
                  "internalType": "bytes32",
                  "name": "A",
                  "type": "bytes32"
                },
                {
                  "internalType": "bytes32",
                  "name": "B",
                  "type": "bytes32"
                },
                {
                  "internalType": "bytes32",
                  "name": "C",
                  "type": "bytes32"
                },
                {
                  "internalType": "bytes32",
                  "name": "DPB",
                  "type": "bytes32"
                },
                {
                  "internalType": "bytes32",
                  "name": "DRB",
                  "type": "bytes32"
                }
              ],
              "internalType": "struct AminoChainLibrary.HlaHashed",
              "name": "hlaHashed",
              "type": "tuple"
            },
            {
              "internalType": "bytes32",
              "name": "hlaHash",
              "type": "bytes32"
            },
            {
              "internalType": "bytes",
              "name": "hlaEncoded",
              "type": "bytes"
            },
            {
              "internalType": "string",
              "name": "genomeEncodedIpfsId",
              "type": "string"
            },
            {
              "internalType": "uint256[]",
              "name": "amounts",
              "type": "uint256[]"
            },
            {
              "internalType": "address",
              "name": "donor",
              "type": "address"
            },
            {
              "internalType": "address",
              "name": "biobank",
              "type": "address"
            }
          ],
          "internalType": "struct AminoChainLibrary.RegistrationData",
          "name": "data",
          "type": "tuple"
        }
      ],
      "name": "mint",
      "outputs": [
        {
          "internalType": "uint256[]",
          "name": "",
          "type": "uint256[]"
        }
      ],
      "stateMutability": "nonpayable",
      "type": "function"
    },
    {
      "inputs": [],
      "name": "name",
      "outputs": [
        {
          "internalType": "string",
          "name": "",
          "type": "string"
        }
      ],
      "stateMutability": "view",
      "type": "function"
    },
    {
      "inputs": [],
      "name": "owner",
      "outputs": [
        {
          "internalType": "address",
          "name": "",
          "type": "address"
        }
      ],
      "stateMutability": "view",
      "type": "function"
    },
    {
      "inputs": [
        {
          "internalType": "uint256",
          "name": "tokenId",
          "type": "uint256"
        }
      ],
      "name": "ownerOf",
      "outputs": [
        {
          "internalType": "address",
          "name": "",
          "type": "address"
        }
      ],
      "stateMutability": "view",
      "type": "function"
    },
    {
      "inputs": [],
      "name": "pause",
      "outputs": [],
      "stateMutability": "nonpayable",
      "type": "function"
    },
    {
      "inputs": [],
      "name": "paused",
      "outputs": [
        {
          "internalType": "bool",
          "name": "",
          "type": "bool"
        }
      ],
      "stateMutability": "view",
      "type": "function"
    },
    {
      "inputs": [],
      "name": "renounceOwnership",
      "outputs": [],
      "stateMutability": "nonpayable",
      "type": "function"
    },
    {
      "inputs": [
        {
          "internalType": "address",
          "name": "from",
          "type": "address"
        },
        {
          "internalType": "address",
          "name": "to",
          "type": "address"
        },
        {
          "internalType": "uint256",
          "name": "tokenId",
          "type": "uint256"
        }
      ],
      "name": "safeTransferFrom",
      "outputs": [],
      "stateMutability": "nonpayable",
      "type": "function"
    },
    {
      "inputs": [
        {
          "internalType": "address",
          "name": "from",
          "type": "address"
        },
        {
          "internalType": "address",
          "name": "to",
          "type": "address"
        },
        {
          "internalType": "uint256",
          "name": "tokenId",
          "type": "uint256"
        },
        {
          "internalType": "bytes",
          "name": "data",
          "type": "bytes"
        }
      ],
      "name": "safeTransferFrom",
      "outputs": [],
      "stateMutability": "nonpayable",
      "type": "function"
    },
    {
      "inputs": [
        {
          "internalType": "address",
          "name": "operator",
          "type": "address"
        },
        {
          "internalType": "bool",
          "name": "approved",
          "type": "bool"
        }
      ],
      "name": "setApprovalForAll",
      "outputs": [],
      "stateMutability": "nonpayable",
      "type": "function"
    },
    {
      "inputs": [
        {
          "internalType": "uint256",
          "name": "tokenId",
          "type": "uint256"
        },
        {
          "internalType": "string",
          "name": "uri",
          "type": "string"
        }
      ],
      "name": "setTokenURI",
      "outputs": [],
      "stateMutability": "nonpayable",
      "type": "function"
    },
    {
      "inputs": [
        {
          "internalType": "bytes4",
          "name": "interfaceId",
          "type": "bytes4"
        }
      ],
      "name": "supportsInterface",
      "outputs": [
        {
          "internalType": "bool",
          "name": "",
          "type": "bool"
        }
      ],
      "stateMutability": "view",
      "type": "function"
    },
    {
      "inputs": [],
      "name": "symbol",
      "outputs": [
        {
          "internalType": "string",
          "name": "",
          "type": "string"
        }
      ],
      "stateMutability": "view",
      "type": "function"
    },
    {
      "inputs": [
        {
          "internalType": "uint256",
          "name": "",
          "type": "uint256"
        }
      ],
      "name": "tokenIdToDonationData",
      "outputs": [
        {
          "internalType": "address",
          "name": "donorAddress",
          "type": "address"
        },
        {
          "components": [
            {
              "internalType": "bytes32",
              "name": "A",
              "type": "bytes32"
            },
            {
              "internalType": "bytes32",
              "name": "B",
              "type": "bytes32"
            },
            {
              "internalType": "bytes32",
              "name": "C",
              "type": "bytes32"
            },
            {
              "internalType": "bytes32",
              "name": "DPB",
              "type": "bytes32"
            },
            {
              "internalType": "bytes32",
              "name": "DRB",
              "type": "bytes32"
            }
          ],
          "internalType": "struct AminoChainLibrary.HlaHashed",
          "name": "hlaHashed",
          "type": "tuple"
        },
        {
          "internalType": "bytes32",
          "name": "hlaHash",
          "type": "bytes32"
        },
        {
          "internalType": "string",
          "name": "genomeEncodedUrl",
          "type": "string"
        },
        {
          "internalType": "uint256",
          "name": "amount",
          "type": "uint256"
        }
      ],
      "stateMutability": "view",
      "type": "function"
    },
    {
      "inputs": [
        {
          "internalType": "uint256",
          "name": "tokenId",
          "type": "uint256"
        }
      ],
      "name": "tokenURI",
      "outputs": [
        {
          "internalType": "string",
          "name": "",
          "type": "string"
        }
      ],
      "stateMutability": "view",
      "type": "function"
    },
    {
      "inputs": [
        {
          "internalType": "address",
          "name": "from",
          "type": "address"
        },
        {
          "internalType": "address",
          "name": "to",
          "type": "address"
        },
        {
          "internalType": "uint256",
          "name": "tokenId",
          "type": "uint256"
        }
      ],
      "name": "transferFrom",
      "outputs": [],
      "stateMutability": "nonpayable",
      "type": "function"
    },
    {
      "inputs": [
        {
          "internalType": "address",
          "name": "newOwner",
          "type": "address"
        }
      ],
      "name": "transferOwnership",
      "outputs": [],
      "stateMutability": "nonpayable",
      "type": "function"
    },
    {
      "inputs": [],
      "name": "unpause",
      "outputs": [],
      "stateMutability": "nonpayable",
      "type": "function"
    }
  ],
  "bytecode": "0x60806040523480156200001157600080fd5b5060405162002700380380620027008339810160408190526200003491620001b2565b81816000620000448382620002ab565b506001620000538282620002ab565b50506006805460ff19169055506200006b336200008a565b620000826007620000e460201b62000fe41760201c565b505062000377565b600680546001600160a01b03838116610100818102610100600160a81b031985161790945560405193909204169182907f8be0079c531659141344cd1fd0a4f28419497f9722a3daafe3b4186f6b6457e090600090a35050565b80546001019055565b634e487b7160e01b600052604160045260246000fd5b600082601f8301126200011557600080fd5b81516001600160401b0380821115620001325762000132620000ed565b604051601f8301601f19908116603f011681019082821181831017156200015d576200015d620000ed565b816040528381526020925086838588010111156200017a57600080fd5b600091505b838210156200019e57858201830151818301840152908201906200017f565b600093810190920192909252949350505050565b60008060408385031215620001c657600080fd5b82516001600160401b0380821115620001de57600080fd5b620001ec8683870162000103565b935060208501519150808211156200020357600080fd5b50620002128582860162000103565b9150509250929050565b600181811c908216806200023157607f821691505b6020821081036200025257634e487b7160e01b600052602260045260246000fd5b50919050565b601f821115620002a657600081815260208120601f850160051c81016020861015620002815750805b601f850160051c820191505b81811015620002a2578281556001016200028d565b5050505b505050565b81516001600160401b03811115620002c757620002c7620000ed565b620002df81620002d884546200021c565b8462000258565b602080601f831160018114620003175760008415620002fe5750858301515b600019600386901b1c1916600185901b178555620002a2565b600085815260208120601f198616915b82811015620003485788860151825594840194600190910190840162000327565b5085821015620003675787850151600019600388901b60f8161c191681555b5050505050600190811b01905550565b61237980620003876000396000f3fe608060405234801561001057600080fd5b50600436106101c45760003560e01c8063715018a6116100f9578063aee4424f11610097578063c87b56dd11610071578063c87b56dd14610442578063e1b54dc814610455578063e985e9c514610468578063f2fde38b146104a457600080fd5b8063aee4424f146103f8578063b2d7a2671461041c578063b88d4fde1461042f57600080fd5b80638da5cb5b116100d35780638da5cb5b146103b457806395d89b41146103ca578063a22cb465146103d2578063a57465e1146103e557600080fd5b8063715018a61461030c57806380930176146103145780638456cb59146103ac57600080fd5b80633f4ba83a116101665780634fe7f56d116101405780634fe7f56d146102ba5780635c975abb146102cd5780636352211e146102d857806370a08231146102eb57600080fd5b80633f4ba83a1461028c57806342842e0e1461029457806344ff8210146102a757600080fd5b8063095ea7b3116101a2578063095ea7b314610231578063162094c4146102465780631881eeb41461025957806323b872dd1461027957600080fd5b806301ffc9a7146101c957806306fdde03146101f1578063081812fc14610206575b600080fd5b6101dc6101d7366004611a6b565b6104b7565b60405190151581526020015b60405180910390f35b6101f9610554565b6040516101e89190611ad5565b610219610214366004611ae8565b6105e6565b6040516001600160a01b0390911681526020016101e8565b61024461023f366004611b18565b61060d565b005b610244610254366004611b42565b610761565b61026c610267366004611bbe565b610780565b6040516101e89190611c14565b610244610287366004611c27565b6107ec565b610244610873565b6102446102a2366004611c27565b610885565b6101f96102b5366004611ae8565b6108a0565b61026c6102c8366004611c63565b61093a565b60065460ff166101dc565b6102196102e6366004611ae8565b610bf8565b6102fe6102f9366004611bbe565b610c5d565b6040519081526020016101e8565b610244610cf7565b61039f610322366004611ae8565b6040805160a08101825260008082526020820181905291810182905260608101829052608081019190915250600090815260096020908152604091829020825160a0810184526001820154815260028201549281019290925260038101549282019290925260048201546060820152600590910154608082015290565b6040516101e89190611c9f565b610244610d09565b60065461010090046001600160a01b0316610219565b6101f9610d19565b6102446103e0366004611cd8565b610d28565b6102fe6103f3366004611b18565b610d37565b61040b610406366004611ae8565b610d68565b6040516101e8959493929190611d14565b6101f961042a366004611ae8565b610e63565b61024461043d366004611dd0565b610f0b565b6101f9610450366004611ae8565b610f93565b6101f9610463366004611ae8565b610fb0565b6101dc610476366004611e90565b6001600160a01b03918216600090815260056020908152604080832093909416825291909152205460ff1690565b6102446104b2366004611bbe565b610fd0565b60006001600160e01b031982167f80ac58cd00000000000000000000000000000000000000000000000000000000148061051a57506001600160e01b031982167f5b5e139f00000000000000000000000000000000000000000000000000000000145b8061054e57507f01ffc9a7000000000000000000000000000000000000000000000000000000006001600160e01b03198316145b92915050565b60606000805461056390611ec3565b80601f016020809104026020016040519081016040528092919081815260200182805461058f90611ec3565b80156105dc5780601f106105b1576101008083540402835291602001916105dc565b820191906000526020600020905b8154815290600101906020018083116105bf57829003601f168201915b5050505050905090565b60006105f182610fed565b506000908152600460205260409020546001600160a01b031690565b600061061882610bf8565b9050806001600160a01b0316836001600160a01b0316036106a65760405162461bcd60e51b815260206004820152602160248201527f4552433732313a20617070726f76616c20746f2063757272656e74206f776e6560448201527f720000000000000000000000000000000000000000000000000000000000000060648201526084015b60405180910390fd5b336001600160a01b03821614806106e057506001600160a01b038116600090815260056020908152604080832033845290915290205460ff165b6107525760405162461bcd60e51b815260206004820152603e60248201527f4552433732313a20617070726f76652063616c6c6572206973206e6f7420746f60448201527f6b656e206f776e6572206e6f7220617070726f76656420666f7220616c6c0000606482015260840161069d565b61075c8383611051565b505050565b600083815260086020526040902061077a828483611f4b565b50505050565b6001600160a01b0381166000908152600b60209081526040918290208054835181840281018401909452808452606093928301828280156107e057602002820191906000526020600020905b8154815260200190600101908083116107cc575b50505050509050919050565b6107f633826110cc565b6108685760405162461bcd60e51b815260206004820152602e60248201527f4552433732313a2063616c6c6572206973206e6f7420746f6b656e206f776e6560448201527f72206e6f7220617070726f766564000000000000000000000000000000000000606482015260840161069d565b61075c83838361114b565b61087b611330565b610883611390565b565b61075c83838360405180602001604052806000815250610f0b565b600a60205260009081526040902080546108b990611ec3565b80601f01602080910402602001604051908101604052809291908181526020018280546108e590611ec3565b80156109325780601f1061090757610100808354040283529160200191610932565b820191906000526020600020905b81548152906001019060200180831161091557829003601f168201915b505050505081565b6060610944611330565b61094c6113e2565b600061095c61010084018461200c565b905067ffffffffffffffff81111561097657610976611d89565b60405190808252806020026020018201604052801561099f578160200160208202803683370190505b50905060005b6109b361010085018561200c565b9050811015610b935760006109c760075490565b90506109d7600780546001019055565b6109e13382611435565b6040805160a08101909152806109ff61014088016101208901611bbe565b6001600160a01b03168152602001610a1c3688900388018861205d565b815260a08701356020820152604001610a3860e08801886120cd565b8080601f016020809104026020016040519081016040528093929190818152602001838380828437600092019190915250505090825250602001610a8061010088018861200c565b85818110610a9057610a90612114565b602090810292909201359092526000848152600982526040908190208451815473ffffffffffffffffffffffffffffffffffffffff19166001600160a01b03909116178155848301518051600183015592830151600282015582820151600382015560608084015160048301556080909301516005820155908401516006820155908301519091506007820190610b27908261212a565b5060809190910151600890910155610b4260c08601866120cd565b60a08701356000908152600a6020526040902091610b61919083611f4b565b5080838381518110610b7557610b75612114565b60209081029190910101525080610b8b81612200565b9150506109a5565b507f2672d08f1d65039f25b6645e02edde4d24b99f3d87b9207d39013c3437da2e1b610bc761014085016101208601611bbe565b84610bd661010082018261200c565b85604051610be8959493929190612219565b60405180910390a190505b919050565b6000818152600260205260408120546001600160a01b03168061054e5760405162461bcd60e51b815260206004820152601860248201527f4552433732313a20696e76616c696420746f6b656e2049440000000000000000604482015260640161069d565b60006001600160a01b038216610cdb5760405162461bcd60e51b815260206004820152602960248201527f4552433732313a2061646472657373207a65726f206973206e6f74206120766160448201527f6c6964206f776e65720000000000000000000000000000000000000000000000606482015260840161069d565b506001600160a01b031660009081526003602052604090205490565b610cff611330565b610883600061144f565b610d11611330565b6108836114c0565b60606001805461056390611ec3565b610d333383836114fd565b5050565b600b6020528160005260406000208181548110610d5357600080fd5b90600052602060002001600091509150505481565b6009602090815260009182526040918290208054835160a08101855260018301548152600283015493810193909352600382015493830193909352600481015460608301526005810154608083015260068101546007820180546001600160a01b0390951694919291610dda90611ec3565b80601f0160208091040260200160405190810160405280929190818152602001828054610e0690611ec3565b8015610e535780601f10610e2857610100808354040283529160200191610e53565b820191906000526020600020905b815481529060010190602001808311610e3657829003601f168201915b5050505050908060080154905085565b6000818152600960209081526040808320600601548352600a9091529020805460609190610e9090611ec3565b80601f0160208091040260200160405190810160405280929190818152602001828054610ebc90611ec3565b80156107e05780601f10610ede576101008083540402835291602001916107e0565b820191906000526020600020905b815481529060010190602001808311610eec5750939695505050505050565b610f1533836110cc565b610f875760405162461bcd60e51b815260206004820152602e60248201527f4552433732313a2063616c6c6572206973206e6f7420746f6b656e206f776e6560448201527f72206e6f7220617070726f766564000000000000000000000000000000000000606482015260840161069d565b61077a848484846115cb565b6000818152600860205260409020805460609190610e9090611ec3565b6000818152600960205260409020600701805460609190610e9090611ec3565b610fd8611330565b610fe181611649565b50565b80546001019055565b6000818152600260205260409020546001600160a01b0316610fe15760405162461bcd60e51b815260206004820152601860248201527f4552433732313a20696e76616c696420746f6b656e2049440000000000000000604482015260640161069d565b6000818152600460205260409020805473ffffffffffffffffffffffffffffffffffffffff19166001600160a01b038416908117909155819061109382610bf8565b6001600160a01b03167f8c5be1e5ebec7d5bd14f71427d1e84f3dd0314c0f7b2291e5b200ac8c7c3b92560405160405180910390a45050565b6000806110d883610bf8565b9050806001600160a01b0316846001600160a01b0316148061111f57506001600160a01b0380821660009081526005602090815260408083209388168352929052205460ff165b806111435750836001600160a01b0316611138846105e6565b6001600160a01b0316145b949350505050565b826001600160a01b031661115e82610bf8565b6001600160a01b0316146111da5760405162461bcd60e51b815260206004820152602560248201527f4552433732313a207472616e736665722066726f6d20696e636f72726563742060448201527f6f776e6572000000000000000000000000000000000000000000000000000000606482015260840161069d565b6001600160a01b0382166112555760405162461bcd60e51b8152602060048201526024808201527f4552433732313a207472616e7366657220746f20746865207a65726f2061646460448201527f7265737300000000000000000000000000000000000000000000000000000000606482015260840161069d565b6112608383836116d6565b61126b600082611051565b6001600160a01b03831660009081526003602052604081208054600192906112949084906122c4565b90915550506001600160a01b03821660009081526003602052604081208054600192906112c29084906122d7565b9091555050600081815260026020526040808220805473ffffffffffffffffffffffffffffffffffffffff19166001600160a01b0386811691821790925591518493918716917fddf252ad1be2c89b69c2b068fc378daa952ba7f163c4a11628f55a4df523b3ef91a4505050565b6006546001600160a01b036101009091041633146108835760405162461bcd60e51b815260206004820181905260248201527f4f776e61626c653a2063616c6c6572206973206e6f7420746865206f776e6572604482015260640161069d565b6113986116de565b6006805460ff191690557f5db9ee0a495bf2e6ff9c91a7834c1ba4fdd244a5e8aa4e537bd38aeae4b073aa335b6040516001600160a01b03909116815260200160405180910390a1565b60065460ff16156108835760405162461bcd60e51b815260206004820152601060248201527f5061757361626c653a2070617573656400000000000000000000000000000000604482015260640161069d565b610d33828260405180602001604052806000815250611730565b600680546001600160a01b038381166101008181027fffffffffffffffffffffff0000000000000000000000000000000000000000ff85161790945560405193909204169182907f8be0079c531659141344cd1fd0a4f28419497f9722a3daafe3b4186f6b6457e090600090a35050565b6114c86113e2565b6006805460ff191660011790557f62e78cea01bee320cd4e420270b5ea74000d11b0c9f74754ebdbfc544b05a2586113c53390565b816001600160a01b0316836001600160a01b03160361155e5760405162461bcd60e51b815260206004820152601960248201527f4552433732313a20617070726f766520746f2063616c6c657200000000000000604482015260640161069d565b6001600160a01b03838116600081815260056020908152604080832094871680845294825291829020805460ff191686151590811790915591519182527f17307eab39ab6107e8899845ad3d59bd9653f200f220920489ca2b5937696c31910160405180910390a3505050565b6115d684848461114b565b6115e2848484846117ae565b61077a5760405162461bcd60e51b815260206004820152603260248201527f4552433732313a207472616e7366657220746f206e6f6e20455243373231526560448201527131b2b4bb32b91034b6b83632b6b2b73a32b960711b606482015260840161069d565b611651611330565b6001600160a01b0381166116cd5760405162461bcd60e51b815260206004820152602660248201527f4f776e61626c653a206e6577206f776e657220697320746865207a65726f206160448201527f6464726573730000000000000000000000000000000000000000000000000000606482015260840161069d565b610fe18161144f565b61075c6113e2565b60065460ff166108835760405162461bcd60e51b815260206004820152601460248201527f5061757361626c653a206e6f7420706175736564000000000000000000000000604482015260640161069d565b61173a83836118fa565b61174760008484846117ae565b61075c5760405162461bcd60e51b815260206004820152603260248201527f4552433732313a207472616e7366657220746f206e6f6e20455243373231526560448201527131b2b4bb32b91034b6b83632b6b2b73a32b960711b606482015260840161069d565b60006001600160a01b0384163b156118ef57604051630a85bd0160e11b81526001600160a01b0385169063150b7a02906117f29033908990889088906004016122ea565b6020604051808303816000875af192505050801561182d575060408051601f3d908101601f1916820190925261182a91810190612326565b60015b6118d5573d80801561185b576040519150601f19603f3d011682016040523d82523d6000602084013e611860565b606091505b5080516000036118cd5760405162461bcd60e51b815260206004820152603260248201527f4552433732313a207472616e7366657220746f206e6f6e20455243373231526560448201527131b2b4bb32b91034b6b83632b6b2b73a32b960711b606482015260840161069d565b805181602001fd5b6001600160e01b031916630a85bd0160e11b149050611143565b506001949350505050565b6001600160a01b0382166119505760405162461bcd60e51b815260206004820181905260248201527f4552433732313a206d696e7420746f20746865207a65726f2061646472657373604482015260640161069d565b6000818152600260205260409020546001600160a01b0316156119b55760405162461bcd60e51b815260206004820152601c60248201527f4552433732313a20746f6b656e20616c7265616479206d696e74656400000000604482015260640161069d565b6119c1600083836116d6565b6001600160a01b03821660009081526003602052604081208054600192906119ea9084906122d7565b9091555050600081815260026020526040808220805473ffffffffffffffffffffffffffffffffffffffff19166001600160a01b03861690811790915590518392907fddf252ad1be2c89b69c2b068fc378daa952ba7f163c4a11628f55a4df523b3ef908290a45050565b6001600160e01b031981168114610fe157600080fd5b600060208284031215611a7d57600080fd5b8135611a8881611a55565b9392505050565b6000815180845260005b81811015611ab557602081850181015186830182015201611a99565b506000602082860101526020601f19601f83011685010191505092915050565b602081526000611a886020830184611a8f565b600060208284031215611afa57600080fd5b5035919050565b80356001600160a01b0381168114610bf357600080fd5b60008060408385031215611b2b57600080fd5b611b3483611b01565b946020939093013593505050565b600080600060408486031215611b5757600080fd5b83359250602084013567ffffffffffffffff80821115611b7657600080fd5b818601915086601f830112611b8a57600080fd5b813581811115611b9957600080fd5b876020828501011115611bab57600080fd5b6020830194508093505050509250925092565b600060208284031215611bd057600080fd5b611a8882611b01565b600081518084526020808501945080840160005b83811015611c0957815187529582019590820190600101611bed565b509495945050505050565b602081526000611a886020830184611bd9565b600080600060608486031215611c3c57600080fd5b611c4584611b01565b9250611c5360208501611b01565b9150604084013590509250925092565b600060208284031215611c7557600080fd5b813567ffffffffffffffff811115611c8c57600080fd5b82016101608185031215611a8857600080fd5b60a0810161054e828480518252602081015160208301526040810151604083015260608101516060830152608081015160808301525050565b60008060408385031215611ceb57600080fd5b611cf483611b01565b915060208301358015158114611d0957600080fd5b809150509250929050565b60006101206001600160a01b0388168352611d5d602084018880518252602081015160208301526040810151604083015260608101516060830152608081015160808301525050565b8560c08401528060e0840152611d7581840186611a8f565b915050826101008301529695505050505050565b634e487b7160e01b600052604160045260246000fd5b604051601f8201601f1916810167ffffffffffffffff81118282101715611dc857611dc8611d89565b604052919050565b60008060008060808587031215611de657600080fd5b611def85611b01565b93506020611dfe818701611b01565b935060408601359250606086013567ffffffffffffffff80821115611e2257600080fd5b818801915088601f830112611e3657600080fd5b813581811115611e4857611e48611d89565b611e5a601f8201601f19168501611d9f565b91508082528984828501011115611e7057600080fd5b808484018584013760008482840101525080935050505092959194509250565b60008060408385031215611ea357600080fd5b611eac83611b01565b9150611eba60208401611b01565b90509250929050565b600181811c90821680611ed757607f821691505b602082108103611ef757634e487b7160e01b600052602260045260246000fd5b50919050565b601f82111561075c57600081815260208120601f850160051c81016020861015611f245750805b601f850160051c820191505b81811015611f4357828155600101611f30565b505050505050565b67ffffffffffffffff831115611f6357611f63611d89565b611f7783611f718354611ec3565b83611efd565b6000601f841160018114611fab5760008515611f935750838201355b600019600387901b1c1916600186901b178355612005565b600083815260209020601f19861690835b82811015611fdc5786850135825560209485019460019092019101611fbc565b5086821015611ff95760001960f88860031b161c19848701351681555b505060018560011b0183555b5050505050565b6000808335601e1984360301811261202357600080fd5b83018035915067ffffffffffffffff82111561203e57600080fd5b6020019150600581901b360382131561205657600080fd5b9250929050565b600060a0828403121561206f57600080fd5b60405160a0810181811067ffffffffffffffff8211171561209257612092611d89565b806040525082358152602083013560208201526040830135604082015260608301356060820152608083013560808201528091505092915050565b6000808335601e198436030181126120e457600080fd5b83018035915067ffffffffffffffff8211156120ff57600080fd5b60200191503681900382131561205657600080fd5b634e487b7160e01b600052603260045260246000fd5b815167ffffffffffffffff81111561214457612144611d89565b612158816121528454611ec3565b84611efd565b602080601f83116001811461218d57600084156121755750858301515b600019600386901b1c1916600185901b178555611f43565b600085815260208120601f198616915b828110156121bc5788860151825594840194600190910190840161219d565b50858210156121da5787850151600019600388901b60f8161c191681555b5050505050600190811b01905550565b634e487b7160e01b600052601160045260246000fd5b600060018201612212576122126121ea565b5060010190565b60006101006001600160a01b038816835286356020840152602087013560408401526040870135606084015260608701356080840152608087013560a08401528060c08401528481840152506101207f07ffffffffffffffffffffffffffffffffffffffffffffffffffffffffffffff85111561229557600080fd5b8460051b8087838601378301838103820160e08501526122b782820186611bd9565b9998505050505050505050565b8181038181111561054e5761054e6121ea565b8082018082111561054e5761054e6121ea565b60006001600160a01b0380871683528086166020840152508360408301526080606083015261231c6080830184611a8f565b9695505050505050565b60006020828403121561233857600080fd5b8151611a8881611a5556fea2646970667358221220bd8acaea23e465bc70b91043dbb77011b4e9ba7b73f1033da04bcaed8764b62864736f6c63430008110033",
  "linkReferences": {},
  "deployedLinkReferences": {}
}