{
  "_format": "hh-sol-artifact-1",
  "contractName": "AminoChainDonation",
  "sourceName": "contracts/AminoChainDonation.sol",
  "abi": [
    {
      "inputs": [
        {
          "internalType": "string",
          "name": "name",
          "type": "string"
        },
        {
          "internalType": "string",
          "name": "symbol",
          "type": "string"
        }
      ],
      "stateMutability": "nonpayable",
      "type": "constructor"
    },
    {
      "anonymous": false,
      "inputs": [
        {
          "indexed": true,
          "internalType": "address",
          "name": "owner",
          "type": "address"
        },
        {
          "indexed": true,
          "internalType": "address",
          "name": "approved",
          "type": "address"
        },
        {
          "indexed": true,
          "internalType": "uint256",
          "name": "tokenId",
          "type": "uint256"
        }
      ],
      "name": "Approval",
      "type": "event"
    },
    {
      "anonymous": false,
      "inputs": [
        {
          "indexed": true,
          "internalType": "address",
          "name": "owner",
          "type": "address"
        },
        {
          "indexed": true,
          "internalType": "address",
          "name": "operator",
          "type": "address"
        },
        {
          "indexed": false,
          "internalType": "bool",
          "name": "approved",
          "type": "bool"
        }
      ],
      "name": "ApprovalForAll",
      "type": "event"
    },
    {
      "anonymous": false,
      "inputs": [
        {
          "indexed": true,
          "internalType": "address",
          "name": "donor",
          "type": "address"
        },
        {
          "components": [
            {
              "internalType": "bytes32",
              "name": "A",
              "type": "bytes32"
            },
            {
              "internalType": "bytes32",
              "name": "B",
              "type": "bytes32"
            },
            {
              "internalType": "bytes32",
              "name": "C",
              "type": "bytes32"
            },
            {
              "internalType": "bytes32",
              "name": "DPB",
              "type": "bytes32"
            },
            {
              "internalType": "bytes32",
              "name": "DRB",
              "type": "bytes32"
            }
          ],
          "indexed": true,
          "internalType": "struct AminoChainLibrary.BioData",
          "name": "bioData",
          "type": "tuple"
        },
        {
          "indexed": true,
          "internalType": "uint256[]",
          "name": "tokenIds",
          "type": "uint256[]"
        },
        {
          "indexed": false,
          "internalType": "uint256[]",
          "name": "amounts",
          "type": "uint256[]"
        }
      ],
      "name": "NFTMinted",
      "type": "event"
    },
    {
      "anonymous": false,
      "inputs": [
        {
          "indexed": true,
          "internalType": "address",
          "name": "previousOwner",
          "type": "address"
        },
        {
          "indexed": true,
          "internalType": "address",
          "name": "newOwner",
          "type": "address"
        }
      ],
      "name": "OwnershipTransferred",
      "type": "event"
    },
    {
      "anonymous": false,
      "inputs": [
        {
          "indexed": false,
          "internalType": "address",
          "name": "account",
          "type": "address"
        }
      ],
      "name": "Paused",
      "type": "event"
    },
    {
      "anonymous": false,
      "inputs": [
        {
          "indexed": true,
          "internalType": "address",
          "name": "from",
          "type": "address"
        },
        {
          "indexed": true,
          "internalType": "address",
          "name": "to",
          "type": "address"
        },
        {
          "indexed": true,
          "internalType": "uint256",
          "name": "tokenId",
          "type": "uint256"
        }
      ],
      "name": "Transfer",
      "type": "event"
    },
    {
      "anonymous": false,
      "inputs": [
        {
          "indexed": false,
          "internalType": "address",
          "name": "account",
          "type": "address"
        }
      ],
      "name": "Unpaused",
      "type": "event"
    },
    {
      "inputs": [
        {
          "internalType": "address",
          "name": "",
          "type": "address"
        },
        {
          "internalType": "uint256",
          "name": "",
          "type": "uint256"
        }
      ],
      "name": "addressToTokenIds",
      "outputs": [
        {
          "internalType": "uint256",
          "name": "",
          "type": "uint256"
        }
      ],
      "stateMutability": "view",
      "type": "function"
    },
    {
      "inputs": [
        {
          "internalType": "address",
          "name": "to",
          "type": "address"
        },
        {
          "internalType": "uint256",
          "name": "tokenId",
          "type": "uint256"
        }
      ],
      "name": "approve",
      "outputs": [],
      "stateMutability": "nonpayable",
      "type": "function"
    },
    {
      "inputs": [
        {
          "internalType": "address",
          "name": "owner",
          "type": "address"
        }
      ],
      "name": "balanceOf",
      "outputs": [
        {
          "internalType": "uint256",
          "name": "",
          "type": "uint256"
        }
      ],
      "stateMutability": "view",
      "type": "function"
    },
    {
      "inputs": [
        {
          "internalType": "uint256",
          "name": "tokenId",
          "type": "uint256"
        }
      ],
      "name": "getApproved",
      "outputs": [
        {
          "internalType": "address",
          "name": "",
          "type": "address"
        }
      ],
      "stateMutability": "view",
      "type": "function"
    },
    {
      "inputs": [
        {
          "internalType": "uint256",
          "name": "tokenId",
          "type": "uint256"
        }
      ],
      "name": "getBioData",
      "outputs": [
        {
          "components": [
            {
              "internalType": "bytes32",
              "name": "A",
              "type": "bytes32"
            },
            {
              "internalType": "bytes32",
              "name": "B",
              "type": "bytes32"
            },
            {
              "internalType": "bytes32",
              "name": "C",
              "type": "bytes32"
            },
            {
              "internalType": "bytes32",
              "name": "DPB",
              "type": "bytes32"
            },
            {
              "internalType": "bytes32",
              "name": "DRB",
              "type": "bytes32"
            }
          ],
          "internalType": "struct AminoChainLibrary.BioData",
          "name": "",
          "type": "tuple"
        }
      ],
      "stateMutability": "view",
      "type": "function"
    },
    {
      "inputs": [
        {
          "internalType": "address",
          "name": "donor",
          "type": "address"
        }
      ],
      "name": "getTokenIdsByDonor",
      "outputs": [
        {
          "internalType": "uint256[]",
          "name": "",
          "type": "uint256[]"
        }
      ],
      "stateMutability": "view",
      "type": "function"
    },
    {
      "inputs": [
        {
          "internalType": "address",
          "name": "owner",
          "type": "address"
        },
        {
          "internalType": "address",
          "name": "operator",
          "type": "address"
        }
      ],
      "name": "isApprovedForAll",
      "outputs": [
        {
          "internalType": "bool",
          "name": "",
          "type": "bool"
        }
      ],
      "stateMutability": "view",
      "type": "function"
    },
    {
      "inputs": [
        {
          "internalType": "address",
          "name": "donor",
          "type": "address"
        },
        {
          "components": [
            {
              "internalType": "bytes32",
              "name": "A",
              "type": "bytes32"
            },
            {
              "internalType": "bytes32",
              "name": "B",
              "type": "bytes32"
            },
            {
              "internalType": "bytes32",
              "name": "C",
              "type": "bytes32"
            },
            {
              "internalType": "bytes32",
              "name": "DPB",
              "type": "bytes32"
            },
            {
              "internalType": "bytes32",
              "name": "DRB",
              "type": "bytes32"
            }
          ],
          "internalType": "struct AminoChainLibrary.BioData",
          "name": "bioData",
          "type": "tuple"
        },
        {
          "internalType": "uint256[]",
          "name": "amounts",
          "type": "uint256[]"
        }
      ],
      "name": "mint",
      "outputs": [
        {
          "internalType": "uint256[]",
          "name": "",
          "type": "uint256[]"
        }
      ],
      "stateMutability": "nonpayable",
      "type": "function"
    },
    {
      "inputs": [],
      "name": "name",
      "outputs": [
        {
          "internalType": "string",
          "name": "",
          "type": "string"
        }
      ],
      "stateMutability": "view",
      "type": "function"
    },
    {
      "inputs": [],
      "name": "owner",
      "outputs": [
        {
          "internalType": "address",
          "name": "",
          "type": "address"
        }
      ],
      "stateMutability": "view",
      "type": "function"
    },
    {
      "inputs": [
        {
          "internalType": "uint256",
          "name": "tokenId",
          "type": "uint256"
        }
      ],
      "name": "ownerOf",
      "outputs": [
        {
          "internalType": "address",
          "name": "",
          "type": "address"
        }
      ],
      "stateMutability": "view",
      "type": "function"
    },
    {
      "inputs": [],
      "name": "pause",
      "outputs": [],
      "stateMutability": "nonpayable",
      "type": "function"
    },
    {
      "inputs": [],
      "name": "paused",
      "outputs": [
        {
          "internalType": "bool",
          "name": "",
          "type": "bool"
        }
      ],
      "stateMutability": "view",
      "type": "function"
    },
    {
      "inputs": [],
      "name": "renounceOwnership",
      "outputs": [],
      "stateMutability": "nonpayable",
      "type": "function"
    },
    {
      "inputs": [
        {
          "internalType": "address",
          "name": "from",
          "type": "address"
        },
        {
          "internalType": "address",
          "name": "to",
          "type": "address"
        },
        {
          "internalType": "uint256",
          "name": "tokenId",
          "type": "uint256"
        }
      ],
      "name": "safeTransferFrom",
      "outputs": [],
      "stateMutability": "nonpayable",
      "type": "function"
    },
    {
      "inputs": [
        {
          "internalType": "address",
          "name": "from",
          "type": "address"
        },
        {
          "internalType": "address",
          "name": "to",
          "type": "address"
        },
        {
          "internalType": "uint256",
          "name": "tokenId",
          "type": "uint256"
        },
        {
          "internalType": "bytes",
          "name": "data",
          "type": "bytes"
        }
      ],
      "name": "safeTransferFrom",
      "outputs": [],
      "stateMutability": "nonpayable",
      "type": "function"
    },
    {
      "inputs": [
        {
          "internalType": "address",
          "name": "operator",
          "type": "address"
        },
        {
          "internalType": "bool",
          "name": "approved",
          "type": "bool"
        }
      ],
      "name": "setApprovalForAll",
      "outputs": [],
      "stateMutability": "nonpayable",
      "type": "function"
    },
    {
      "inputs": [
        {
          "internalType": "uint256",
          "name": "tokenId",
          "type": "uint256"
        },
        {
          "internalType": "string",
          "name": "uri",
          "type": "string"
        }
      ],
      "name": "setTokenURI",
      "outputs": [],
      "stateMutability": "nonpayable",
      "type": "function"
    },
    {
      "inputs": [
        {
          "internalType": "bytes4",
          "name": "interfaceId",
          "type": "bytes4"
        }
      ],
      "name": "supportsInterface",
      "outputs": [
        {
          "internalType": "bool",
          "name": "",
          "type": "bool"
        }
      ],
      "stateMutability": "view",
      "type": "function"
    },
    {
      "inputs": [],
      "name": "symbol",
      "outputs": [
        {
          "internalType": "string",
          "name": "",
          "type": "string"
        }
      ],
      "stateMutability": "view",
      "type": "function"
    },
    {
      "inputs": [
        {
          "internalType": "uint256",
          "name": "",
          "type": "uint256"
        }
      ],
      "name": "tokenIdToDonationData",
      "outputs": [
        {
          "internalType": "address",
          "name": "donorAddress",
          "type": "address"
        },
        {
          "components": [
            {
              "internalType": "bytes32",
              "name": "A",
              "type": "bytes32"
            },
            {
              "internalType": "bytes32",
              "name": "B",
              "type": "bytes32"
            },
            {
              "internalType": "bytes32",
              "name": "C",
              "type": "bytes32"
            },
            {
              "internalType": "bytes32",
              "name": "DPB",
              "type": "bytes32"
            },
            {
              "internalType": "bytes32",
              "name": "DRB",
              "type": "bytes32"
            }
          ],
          "internalType": "struct AminoChainLibrary.BioData",
          "name": "bioData",
          "type": "tuple"
        },
        {
          "internalType": "uint256",
          "name": "amount",
          "type": "uint256"
        }
      ],
      "stateMutability": "view",
      "type": "function"
    },
    {
      "inputs": [
        {
          "internalType": "uint256",
          "name": "tokenId",
          "type": "uint256"
        }
      ],
      "name": "tokenURI",
      "outputs": [
        {
          "internalType": "string",
          "name": "",
          "type": "string"
        }
      ],
      "stateMutability": "view",
      "type": "function"
    },
    {
      "inputs": [
        {
          "internalType": "address",
          "name": "from",
          "type": "address"
        },
        {
          "internalType": "address",
          "name": "to",
          "type": "address"
        },
        {
          "internalType": "uint256",
          "name": "tokenId",
          "type": "uint256"
        }
      ],
      "name": "transferFrom",
      "outputs": [],
      "stateMutability": "nonpayable",
      "type": "function"
    },
    {
      "inputs": [
        {
          "internalType": "address",
          "name": "newOwner",
          "type": "address"
        }
      ],
      "name": "transferOwnership",
      "outputs": [],
      "stateMutability": "nonpayable",
      "type": "function"
    },
    {
      "inputs": [],
      "name": "unpause",
      "outputs": [],
      "stateMutability": "nonpayable",
      "type": "function"
    }
  ],
  "bytecode": "0x60806040523480156200001157600080fd5b5060405162002317380380620023178339810160408190526200003491620001b2565b81816000620000448382620002ab565b506001620000538282620002ab565b50506006805460ff19169055506200006b336200008a565b620000826007620000e460201b62000d831760201c565b505062000377565b600680546001600160a01b03838116610100818102610100600160a81b031985161790945560405193909204169182907f8be0079c531659141344cd1fd0a4f28419497f9722a3daafe3b4186f6b6457e090600090a35050565b80546001019055565b634e487b7160e01b600052604160045260246000fd5b600082601f8301126200011557600080fd5b81516001600160401b0380821115620001325762000132620000ed565b604051601f8301601f19908116603f011681019082821181831017156200015d576200015d620000ed565b816040528381526020925086838588010111156200017a57600080fd5b600091505b838210156200019e57858201830151818301840152908201906200017f565b600093810190920192909252949350505050565b60008060408385031215620001c657600080fd5b82516001600160401b0380821115620001de57600080fd5b620001ec8683870162000103565b935060208501519150808211156200020357600080fd5b50620002128582860162000103565b9150509250929050565b600181811c908216806200023157607f821691505b6020821081036200025257634e487b7160e01b600052602260045260246000fd5b50919050565b601f821115620002a657600081815260208120601f850160051c81016020861015620002815750805b601f850160051c820191505b81811015620002a2578281556001016200028d565b5050505b505050565b81516001600160401b03811115620002c757620002c7620000ed565b620002df81620002d884546200021c565b8462000258565b602080601f831160018114620003175760008415620002fe5750858301515b600019600386901b1c1916600185901b178555620002a2565b600085815260208120601f198616915b82811015620003485788860151825594840194600190910190840162000327565b5085821015620003675787850151600019600388901b60f8161c191681555b5050505050600190811b01905550565b611f9080620003876000396000f3fe608060405234801561001057600080fd5b50600436106101a35760003560e01c806370a08231116100ee578063a57465e111610097578063b88d4fde11610071578063b88d4fde14610443578063c87b56dd14610456578063e985e9c514610469578063f2fde38b146104a557600080fd5b8063a57465e11461039e578063a834cad5146103b1578063aee4424f146103c457600080fd5b80638da5cb5b116100c85780638da5cb5b1461036d57806395d89b4114610383578063a22cb4651461038b57600080fd5b806370a082311461033c578063715018a61461035d5780638456cb591461036557600080fd5b80631881eeb41161015057806342842e0e1161012a57806342842e0e1461030b5780635c975abb1461031e5780636352211e1461032957600080fd5b80631881eeb4146102d057806323b872dd146102f05780633f4ba83a1461030357600080fd5b8063095ea7b311610181578063095ea7b3146102105780630b21221314610225578063162094c4146102bd57600080fd5b806301ffc9a7146101a857806306fdde03146101d0578063081812fc146101e5575b600080fd5b6101bb6101b6366004611806565b6104b8565b60405190151581526020015b60405180910390f35b6101d8610555565b6040516101c79190611870565b6101f86101f3366004611883565b6105e7565b6040516001600160a01b0390911681526020016101c7565b61022361021e3660046118b8565b61060e565b005b6102b0610233366004611883565b6040805160a08101825260008082526020820181905291810182905260608101829052608081019190915250600090815260096020908152604091829020825160a0810184526001820154815260028201549281019290925260038101549282019290925260048201546060820152600590910154608082015290565b6040516101c791906118e2565b6102236102cb36600461191b565b610762565b6102e36102de366004611997565b610781565b6040516101c791906119b2565b6102236102fe3660046119f6565b6107ed565b610223610874565b6102236103193660046119f6565b610886565b60065460ff166101bb565b6101f8610337366004611883565b6108a1565b61034f61034a366004611997565b610906565b6040519081526020016101c7565b6102236109a0565b6102236109b2565b60065461010090046001600160a01b03166101f8565b6101d86109c2565b610223610399366004611a32565b6109d1565b61034f6103ac3660046118b8565b6109e0565b6102e36103bf366004611a6e565b610a11565b6104346103d2366004611883565b6009602090815260009182526040918290208054835160a081018552600183015481526002830154938101939093526003820154938301939093526004810154606083015260058101546080830152600601546001600160a01b039092169183565b6040516101c793929190611b0b565b610223610451366004611ba8565b610c4f565b6101d8610464366004611883565b610cd7565b6101bb610477366004611c68565b6001600160a01b03918216600090815260056020908152604080832093909416825291909152205460ff1690565b6102236104b3366004611997565b610d6f565b60006001600160e01b031982167f80ac58cd00000000000000000000000000000000000000000000000000000000148061051b57506001600160e01b031982167f5b5e139f00000000000000000000000000000000000000000000000000000000145b8061054f57507f01ffc9a7000000000000000000000000000000000000000000000000000000006001600160e01b03198316145b92915050565b60606000805461056490611c9b565b80601f016020809104026020016040519081016040528092919081815260200182805461059090611c9b565b80156105dd5780601f106105b2576101008083540402835291602001916105dd565b820191906000526020600020905b8154815290600101906020018083116105c057829003601f168201915b5050505050905090565b60006105f282610d8c565b506000908152600460205260409020546001600160a01b031690565b6000610619826108a1565b9050806001600160a01b0316836001600160a01b0316036106a75760405162461bcd60e51b815260206004820152602160248201527f4552433732313a20617070726f76616c20746f2063757272656e74206f776e6560448201527f720000000000000000000000000000000000000000000000000000000000000060648201526084015b60405180910390fd5b336001600160a01b03821614806106e157506001600160a01b038116600090815260056020908152604080832033845290915290205460ff165b6107535760405162461bcd60e51b815260206004820152603e60248201527f4552433732313a20617070726f76652063616c6c6572206973206e6f7420746f60448201527f6b656e206f776e6572206e6f7220617070726f76656420666f7220616c6c0000606482015260840161069e565b61075d8383610df0565b505050565b600083815260086020526040902061077b828483611d23565b50505050565b6001600160a01b0381166000908152600a60209081526040918290208054835181840281018401909452808452606093928301828280156107e157602002820191906000526020600020905b8154815260200190600101908083116107cd575b50505050509050919050565b6107f73382610e6b565b6108695760405162461bcd60e51b815260206004820152602e60248201527f4552433732313a2063616c6c6572206973206e6f7420746f6b656e206f776e6560448201527f72206e6f7220617070726f766564000000000000000000000000000000000000606482015260840161069e565b61075d838383610ee9565b61087c6110ce565b61088461112e565b565b61075d83838360405180602001604052806000815250610c4f565b6000818152600260205260408120546001600160a01b03168061054f5760405162461bcd60e51b815260206004820152601860248201527f4552433732313a20696e76616c696420746f6b656e2049440000000000000000604482015260640161069e565b60006001600160a01b0382166109845760405162461bcd60e51b815260206004820152602960248201527f4552433732313a2061646472657373207a65726f206973206e6f74206120766160448201527f6c6964206f776e65720000000000000000000000000000000000000000000000606482015260840161069e565b506001600160a01b031660009081526003602052604090205490565b6109a86110ce565b6108846000611180565b6109ba6110ce565b6108846111f1565b60606001805461056490611c9b565b6109dc33838361122e565b5050565b600a60205281600052604060002081815481106109fc57600080fd5b90600052602060002001600091509150505481565b6060610a1b6110ce565b610a236112fc565b60008267ffffffffffffffff811115610a3e57610a3e611b61565b604051908082528060200260200182016040528015610a67578160200160208202803683370190505b50905060005b83811015610bb2576000610a8060075490565b9050610a90600780546001019055565b610a9a338261134f565b6040518060600160405280896001600160a01b0316815260200188803603810190610ac59190611de4565b8152602001878785818110610adc57610adc611e54565b6020908102929092013590925260008481526009825260408082208551815473ffffffffffffffffffffffffffffffffffffffff19166001600160a01b03918216178255868501518051600180850191909155818701516002850155818501516003850155606082015160048501556080909101516005840155968301516006909201919091558d168252600a83528120805494850181558152209091018290555082518190849084908110610b9457610b94611e54565b60209081029190910101525080610baa81611e80565b915050610a6d565b508383604051610bc3929190611e99565b6040805191829003822087358352602080890135908401528782013583830152606080890135908401526080808901359084015290519182900360a001822090916001600160a01b038916907f2672d08f1d65039f25b6645e02edde4d24b99f3d87b9207d39013c3437da2e1b90610c3c9086906119b2565b60405180910390a490505b949350505050565b610c593383610e6b565b610ccb5760405162461bcd60e51b815260206004820152602e60248201527f4552433732313a2063616c6c6572206973206e6f7420746f6b656e206f776e6560448201527f72206e6f7220617070726f766564000000000000000000000000000000000000606482015260840161069e565b61077b84848484611369565b6000818152600860205260409020805460609190610cf490611c9b565b80601f0160208091040260200160405190810160405280929190818152602001828054610d2090611c9b565b80156107e15780601f10610d42576101008083540402835291602001916107e1565b820191906000526020600020905b815481529060010190602001808311610d505750939695505050505050565b610d776110ce565b610d80816113e7565b50565b80546001019055565b6000818152600260205260409020546001600160a01b0316610d805760405162461bcd60e51b815260206004820152601860248201527f4552433732313a20696e76616c696420746f6b656e2049440000000000000000604482015260640161069e565b6000818152600460205260409020805473ffffffffffffffffffffffffffffffffffffffff19166001600160a01b0384169081179091558190610e32826108a1565b6001600160a01b03167f8c5be1e5ebec7d5bd14f71427d1e84f3dd0314c0f7b2291e5b200ac8c7c3b92560405160405180910390a45050565b600080610e77836108a1565b9050806001600160a01b0316846001600160a01b03161480610ebe57506001600160a01b0380821660009081526005602090815260408083209388168352929052205460ff165b80610c475750836001600160a01b0316610ed7846105e7565b6001600160a01b031614949350505050565b826001600160a01b0316610efc826108a1565b6001600160a01b031614610f785760405162461bcd60e51b815260206004820152602560248201527f4552433732313a207472616e736665722066726f6d20696e636f72726563742060448201527f6f776e6572000000000000000000000000000000000000000000000000000000606482015260840161069e565b6001600160a01b038216610ff35760405162461bcd60e51b8152602060048201526024808201527f4552433732313a207472616e7366657220746f20746865207a65726f2061646460448201527f7265737300000000000000000000000000000000000000000000000000000000606482015260840161069e565b610ffe838383611474565b611009600082610df0565b6001600160a01b0383166000908152600360205260408120805460019290611032908490611edb565b90915550506001600160a01b0382166000908152600360205260408120805460019290611060908490611eee565b9091555050600081815260026020526040808220805473ffffffffffffffffffffffffffffffffffffffff19166001600160a01b0386811691821790925591518493918716917fddf252ad1be2c89b69c2b068fc378daa952ba7f163c4a11628f55a4df523b3ef91a4505050565b6006546001600160a01b036101009091041633146108845760405162461bcd60e51b815260206004820181905260248201527f4f776e61626c653a2063616c6c6572206973206e6f7420746865206f776e6572604482015260640161069e565b61113661147c565b6006805460ff191690557f5db9ee0a495bf2e6ff9c91a7834c1ba4fdd244a5e8aa4e537bd38aeae4b073aa335b6040516001600160a01b03909116815260200160405180910390a1565b600680546001600160a01b038381166101008181027fffffffffffffffffffffff0000000000000000000000000000000000000000ff85161790945560405193909204169182907f8be0079c531659141344cd1fd0a4f28419497f9722a3daafe3b4186f6b6457e090600090a35050565b6111f96112fc565b6006805460ff191660011790557f62e78cea01bee320cd4e420270b5ea74000d11b0c9f74754ebdbfc544b05a2586111633390565b816001600160a01b0316836001600160a01b03160361128f5760405162461bcd60e51b815260206004820152601960248201527f4552433732313a20617070726f766520746f2063616c6c657200000000000000604482015260640161069e565b6001600160a01b03838116600081815260056020908152604080832094871680845294825291829020805460ff191686151590811790915591519182527f17307eab39ab6107e8899845ad3d59bd9653f200f220920489ca2b5937696c31910160405180910390a3505050565b60065460ff16156108845760405162461bcd60e51b815260206004820152601060248201527f5061757361626c653a2070617573656400000000000000000000000000000000604482015260640161069e565b6109dc8282604051806020016040528060008152506114ce565b611374848484610ee9565b6113808484848461154c565b61077b5760405162461bcd60e51b815260206004820152603260248201527f4552433732313a207472616e7366657220746f206e6f6e20455243373231526560448201527131b2b4bb32b91034b6b83632b6b2b73a32b960711b606482015260840161069e565b6113ef6110ce565b6001600160a01b03811661146b5760405162461bcd60e51b815260206004820152602660248201527f4f776e61626c653a206e6577206f776e657220697320746865207a65726f206160448201527f6464726573730000000000000000000000000000000000000000000000000000606482015260840161069e565b610d8081611180565b61075d6112fc565b60065460ff166108845760405162461bcd60e51b815260206004820152601460248201527f5061757361626c653a206e6f7420706175736564000000000000000000000000604482015260640161069e565b6114d88383611695565b6114e5600084848461154c565b61075d5760405162461bcd60e51b815260206004820152603260248201527f4552433732313a207472616e7366657220746f206e6f6e20455243373231526560448201527131b2b4bb32b91034b6b83632b6b2b73a32b960711b606482015260840161069e565b60006001600160a01b0384163b1561168d57604051630a85bd0160e11b81526001600160a01b0385169063150b7a0290611590903390899088908890600401611f01565b6020604051808303816000875af19250505080156115cb575060408051601f3d908101601f191682019092526115c891810190611f3d565b60015b611673573d8080156115f9576040519150601f19603f3d011682016040523d82523d6000602084013e6115fe565b606091505b50805160000361166b5760405162461bcd60e51b815260206004820152603260248201527f4552433732313a207472616e7366657220746f206e6f6e20455243373231526560448201527131b2b4bb32b91034b6b83632b6b2b73a32b960711b606482015260840161069e565b805181602001fd5b6001600160e01b031916630a85bd0160e11b149050610c47565b506001610c47565b6001600160a01b0382166116eb5760405162461bcd60e51b815260206004820181905260248201527f4552433732313a206d696e7420746f20746865207a65726f2061646472657373604482015260640161069e565b6000818152600260205260409020546001600160a01b0316156117505760405162461bcd60e51b815260206004820152601c60248201527f4552433732313a20746f6b656e20616c7265616479206d696e74656400000000604482015260640161069e565b61175c60008383611474565b6001600160a01b0382166000908152600360205260408120805460019290611785908490611eee565b9091555050600081815260026020526040808220805473ffffffffffffffffffffffffffffffffffffffff19166001600160a01b03861690811790915590518392907fddf252ad1be2c89b69c2b068fc378daa952ba7f163c4a11628f55a4df523b3ef908290a45050565b6001600160e01b031981168114610d8057600080fd5b60006020828403121561181857600080fd5b8135611823816117f0565b9392505050565b6000815180845260005b8181101561185057602081850181015186830182015201611834565b506000602082860101526020601f19601f83011685010191505092915050565b602081526000611823602083018461182a565b60006020828403121561189557600080fd5b5035919050565b80356001600160a01b03811681146118b357600080fd5b919050565b600080604083850312156118cb57600080fd5b6118d48361189c565b946020939093013593505050565b60a0810161054f828480518252602081015160208301526040810151604083015260608101516060830152608081015160808301525050565b60008060006040848603121561193057600080fd5b83359250602084013567ffffffffffffffff8082111561194f57600080fd5b818601915086601f83011261196357600080fd5b81358181111561197257600080fd5b87602082850101111561198457600080fd5b6020830194508093505050509250925092565b6000602082840312156119a957600080fd5b6118238261189c565b6020808252825182820181905260009190848201906040850190845b818110156119ea578351835292840192918401916001016119ce565b50909695505050505050565b600080600060608486031215611a0b57600080fd5b611a148461189c565b9250611a226020850161189c565b9150604084013590509250925092565b60008060408385031215611a4557600080fd5b611a4e8361189c565b915060208301358015158114611a6357600080fd5b809150509250929050565b60008060008084860360e0811215611a8557600080fd5b611a8e8661189c565b945060a0601f1982011215611aa257600080fd5b5060208501925060c085013567ffffffffffffffff80821115611ac457600080fd5b818701915087601f830112611ad857600080fd5b813581811115611ae757600080fd5b8860208260051b8501011115611afc57600080fd5b95989497505060200194505050565b6001600160a01b038416815260e08101611b53602083018580518252602081015160208301526040810151604083015260608101516060830152608081015160808301525050565b8260c0830152949350505050565b634e487b7160e01b600052604160045260246000fd5b604051601f8201601f1916810167ffffffffffffffff81118282101715611ba057611ba0611b61565b604052919050565b60008060008060808587031215611bbe57600080fd5b611bc78561189c565b93506020611bd681870161189c565b935060408601359250606086013567ffffffffffffffff80821115611bfa57600080fd5b818801915088601f830112611c0e57600080fd5b813581811115611c2057611c20611b61565b611c32601f8201601f19168501611b77565b91508082528984828501011115611c4857600080fd5b808484018584013760008482840101525080935050505092959194509250565b60008060408385031215611c7b57600080fd5b611c848361189c565b9150611c926020840161189c565b90509250929050565b600181811c90821680611caf57607f821691505b602082108103611ccf57634e487b7160e01b600052602260045260246000fd5b50919050565b601f82111561075d57600081815260208120601f850160051c81016020861015611cfc5750805b601f850160051c820191505b81811015611d1b57828155600101611d08565b505050505050565b67ffffffffffffffff831115611d3b57611d3b611b61565b611d4f83611d498354611c9b565b83611cd5565b6000601f841160018114611d835760008515611d6b5750838201355b600019600387901b1c1916600186901b178355611ddd565b600083815260209020601f19861690835b82811015611db45786850135825560209485019460019092019101611d94565b5086821015611dd15760001960f88860031b161c19848701351681555b505060018560011b0183555b5050505050565b600060a08284031215611df657600080fd5b60405160a0810181811067ffffffffffffffff82111715611e1957611e19611b61565b806040525082358152602083013560208201526040830135604082015260608301356060820152608083013560808201528091505092915050565b634e487b7160e01b600052603260045260246000fd5b634e487b7160e01b600052601160045260246000fd5b600060018201611e9257611e92611e6a565b5060010190565b60007f07ffffffffffffffffffffffffffffffffffffffffffffffffffffffffffffff831115611ec857600080fd5b8260051b80858437919091019392505050565b8181038181111561054f5761054f611e6a565b8082018082111561054f5761054f611e6a565b60006001600160a01b03808716835280861660208401525083604083015260806060830152611f33608083018461182a565b9695505050505050565b600060208284031215611f4f57600080fd5b8151611823816117f056fea2646970667358221220256d7824afe84e82529ee04b446580b02b4e7015805438b96eb6618cb1553c4f64736f6c63430008110033",
  "linkReferences": {},
  "deployedLinkReferences": {}
}